0146010230999991999010100004+69050+018550SY-MT+0079ENDU V0200401N001012200019N0750001N1-00321-00351100941ADDGA1021+009009999GA2021+015009999GF104991041081008001071001MA1100811099951MD1210011+9999MW1001REMSYN011 333 91106;MET005NEW ;EQDQ01+000000PRSWM2
0147010230999991999010100504+69050+018550FM-15+0079ENDU V0209999V000512200019N0112651N1-00201-00201100911ADDGA1021+009009999GA2021+015009999GF104991999999999999999999MA1100811099921MW1001REMMET005NEW ;EQDQ01+999990APOSP Q02+999990APOSLPQ03+000000PRSWM2
0147010230999991999010101504+69050+018550FM-15+0079ENDU V0209999V000510180019N0112651N1-00201-00201100911ADDGA1021+012009999GA2071+018009999GF107991999999999999999999MA1100811099921MW1001REMMET005NEW ;EQDQ01+999990APOSP Q02+999990APOSLPQ03+000000PRSWM2
0129010230999991999010103004+69050+018550SY-MT+0079ENDU V0202201N002610180019N0750001N1+00241+00151100861ADDGA1021+012009999GA2071+018009999GF107991051081012501071999MA1100811099881MD1710071+9999MW1001REMMET005NEW ;EQDQ01+000000PRSWM2
0147010230999991999010103504+69050+018550FM-15+0079ENDU V0202001N002110180019N0112651N1+00401-00201100791ADDGA1021+012009999GA2071+018009999GF107991999999999999999999MA1100711099821MW1001REMMET005NEW ;EQDQ01+999990APOSP Q02+999990APOSLPQ03+000000PRSWM2
0147010230999991999010104504+69050+018550FM-15+0079ENDU V0202101N005710180019N0112651N1+00501-00201100691ADDGA1021+012009999GA2071+018009999GF107991999999999999999999MA1100611099721MW1001REMMET005NEW ;EQDQ01+999990APOSP Q02+999990APOSLPQ03+000000PRSWM2
0229010230999991999010106004+69050+018550SY-MT+0079ENDU V0202201N007210180019N0300001N1+00531-00161100691ADDAA199000191AJ100179199999999AY181061AY221061GA1021+012009999GA2071+018009999GF107991061081012501071999IA1239KA1120N-00471MA1100611099721MD1710161+9999MW1801OC101231REMSYN023 333 21047 47017 91123;MET005NEW ;EQDQ01    003PRSWM1
0155010230999991999010106504+69050+018550FM-15+0079ENDU V0202101N004112200019N0112651N1+00501-00301100691ADDGA1021+009009999GA2021+015009999GF104991999999999999999999MA1100611099721MW1001OC100931REMMET005NEW ;EQDQ01+999990APOSP Q02+999990APOSLPQ03+000000PRSWM2
0155010230999991999010107504+69050+018550FM-15+0079ENDU V0202201N004610150019N0112651N1+00501-00401100691ADDGA1021+009009999GA2071+015009999GF107991999999999999999999MA1100611099721MW1001OC100981REMMET005NEW ;EQDQ01+999990APOSP Q02+999990APOSLPQ03+000000PRSWM2
0177010230999991999010109004+69050+018550SY-MT+0079ENDU V0202401N007210270019N0400001N1+00541-00341100631ADDAY181031AY221031GA1021+009009999GA2021+013509999GA3071+027009999GF107991051081008001071999MA1100611099661MD1710061+9999MW1021REMMET005NEW ;EQDQ01+000000PRSWM2Q02    003PRSWM1
0155010230999991999010109504+69050+018550FM-15+0079ENDU V0202101N005710135019N0112651N1+00501-00301100591ADDGA1021+009009999GA2071+013509999GF107991999999999999999999MA1100511099621MW1001OC101081REMMET005NEW ;EQDQ01+999990APOSP Q02+999990APOSLPQ03+000000PRSWM2
0155010230999991999010110504+69050+018550FM-15+0079ENDU V0202101N008210135019N0112651N1+00501-00301100591ADDGA1021+010509999GA2071+013509999GF107991999999999999999999MA1100511099621MW1001OC101341REMMET005NEW ;EQDQ01+999990APOSP Q02+999990APOSLPQ03+000000PRSWM2
0162010230999991999010112004+69050+018550SY-MT+0079ENDU V0202101N004610120019N0300001N1+00511-00271100621ADDAY181061AY221061GA1021+009009999GA2071+012009999GF108991071081008001999999MA1100511099651MD1510011+9999MW1801REMSYN011 333 91126;MET005NEW ;EQDQ01    003PRSWM1
0163010230999991999010112504+69050+018550FM-15+0079ENDU V0202901N004610090019N0090001N1+00301+00201100801ADDGA1021+006009999GA2071+009009999GF107991999999999999999999MA1100711099821MW1811REMMET005NEW ;EQDQ01+999990APOSP Q02+999990APOSLPQ03+000003PRSWM1Q04    003PRSWM1
0163010230999991999010113504+69050+018550FM-15+0079ENDU V0202801N005710075019N0090001N1+00201+00101100901ADDGA1021+004509999GA2071+007509999GF107991999999999999999999MA1100811099921MW1801REMMET005NEW ;EQDQ01+999990APOSP Q02+999990APOSLPQ03+000003PRSWM1Q04    003PRSWM1
0161010230999991999010115004+69050+018550SY-MT+0079ENDU V0202901N004112200019N0300001N1+00171+00111100931ADDAY181031AY221031GA1021+007509999GA2021+009009999GF104991041081008001071081MA1100811099951MD1210301+9999MW1251REMMET005NEW ;EQDQ01+000000PRSWM2Q02    003PRSWM1
0147010230999991999010115504+69050+018550FM-15+0079ENDU V0209999V000512200019N0112651N1+00001-00101101011ADDGA1021+007509999GA2021+012009999GF104991999999999999999999MA1100911100021MW1001REMMET005NEW ;EQDQ01+999990APOSP Q02+999990APOSLPQ03+000000PRSWM2
0147010230999991999010116504+69050+018550FM-15+0079ENDU V0209999V001012200019N0112651N1+00001-00101101011ADDGA1021+000609999GA2021+012009999GF104991999999999999999999MA1100911100021MW1001REMMET005NEW ;EQDQ01+999990APOSP Q02+999990APOSLPQ03+000000PRSWM2
0208010230999991999010118004+69050+018550SY-MT+0079ENDU V0202901N002612200019N0700001N1-00131-00171101061ADDAA199001091AY181061AY221061GA1021+009009999GA2021+013509999GF104991031081008001071001KA1120M+00571MA1101021100071MD1210121+9999MW1021REMSYN017 333 10057 91116;MET005NEW ;EQDQ01+000000PRSWM2Q02    003PRSWM1
0131010230999991999010118504+69050+018550FM-15+0079ENDU V0209999V001512200019N0112651N1-00301-00301101121ADDGA1021+009009999GF102991999999999999999999MA1101021100121MW1001REMMET005NEW ;EQDQ01+999990APOSP Q02+999990APOSLPQ03+000000PRSWM2
0147010230999991999010119504+69050+018550FM-15+0079ENDU V0209999V000512200019N0112651N1-00401-00401101121ADDGA1021+000309999GF102991999999999999999999MA1101021100121MW1401REMMET005NEW ;EQDQ01+999990APOSP Q02+999990APOSLPQ03+000003PRSWM1Q04    003PRSWM1
0129010230999991999010121004+69050+018550SY-MT+0079ENDU V0202701N001012200019N0750001N1-00541-00581101101ADDGA1021+000309999GF199999011081000251071001MA1101021100101MD1110031+9999MW1001REMMET005NEW ;EQDQ01+000012SCOTCVQ02+000000PRSWM2
0131010230999991999010121504+69050+018550FM-15+0079ENDU V0209999V000512200019N0112651N1-00701-00701101141ADDGA1021+000309999GF102991999999999999999999MA1101021100121MW1001REMMET005NEW ;EQDQ01+999990APOSP Q02+999990APOSLPQ03+000000PRSWM2
0147010230999991999010122504+69050+018550FM-15+0079ENDU V0209999V001012200019N0112651N1-00801-00801101141ADDGA1021+000309999GA2021+060009999GF104991999999999999999999MA1101021100121MW1001REMMET005NEW ;EQDQ01+999990APOSP Q02+999990APOSLPQ03+000000PRSWM2
0120010230999991999010200004+69050+018550SY-MT+0079ENDU V0202201N001012200019N0750001N1-00871-00901101031ADDGF104991001001999999001081MA1100911100031MD1710071+9999MW1001REMSYN011 333 91109;MET011NEW CAVOK ;EQDQ01+000000PRSWM2
0147010230999991999010200504+69050+018550FM-15+0079ENDU V0209999V000510600019N0112651N1-00901-00901101041ADDGA1021+015009999GA2071+060009999GF107991999999999999999999MA1100911100021MW1001REMMET005NEW ;EQDQ01+999990APOSP Q02+999990APOSLPQ03+000000PRSWM2
0147010230999991999010201504+69050+018550FM-15+0079ENDU V0209999V001010600019N0112651N1-01001-01001100941ADDGA1021+015009999GA2071+060009999GF107991999999999999999999MA1100811099921MW1001REMMET005NEW ;EQDQ01+999990APOSP Q02+999990APOSLPQ03+000000PRSWM2
0145010230999991999010203004+69050+018550SY-MT+0079ENDU V0202001N000510600019N0750001N1-01021-01051100791ADDGA1021+015009999GA2071+060009999GF199999011081012501001071MA1100711099791MD1710241+9999MW1001REMMET005NEW ;EQDQ01+000062SCOTCVQ02+000000PRSWM2
0147010230999991999010203504+69050+018550FM-15+0079ENDU V0209999V000510600019N0112651N1-01101-01101100751ADDGA1021+015009999GA2071+060009999GF107991999999999999999999MA1100611099721MW1001REMMET005NEW ;EQDQ01+999990APOSP Q02+999990APOSLPQ03+000000PRSWM2
0147010230999991999010204504+69050+018550FM-15+0079ENDU V0209999C000010600019N0112651N1-01001-01001100741ADDGA1021+015009999GA2071+060009999GF107991999999999999999999MA1100611099721MW1001REMMET005NEW ;EQDQ01+999990APOSP Q02+999990APOSLPQ03+000000PRSWM2
0221010230999991999010206004+69050+018550SY-MT+0079ENDU V0203001N00151075001CN0750001N1-00691-00721100591ADDAA199000091AJ100109199999999GA1021+018009999GA2021+060009999GF105991011081017501071071IA1279KA1120N-01111MA1100411099601MD1710191+9999MW1001REMSYN023 333 21111 43010 91105;MET005NEW ;EQDQ01+000000PRSWM2Q02  00002PRCP99
0152010230999991999010206504+69050+018550FM-15+0079ENDU V0209999V000512200019N0112651N1-00801-00801100531ADDGA1021+018009999GA2021+060009999GF104991999999999999999999MA1100411099521MW1001REMMET010NEW NOSIG;EQDQ01+999990APOSP Q02+999990APOSLPQ03+000000PRSWM2
0152010230999991999010207504+69050+018550FM-15+0079ENDU V0209999V000512200019N0112651N1-00501-00701100521ADDGA1021+018009999GA2021+060009999GF104991999999999999999999MA1100411099521MW1001REMMET010NEW NOSIG;EQDQ01+999990APOSP Q02+999990APOSLPQ03+000000PRSWM2
0134010230999991999010209004+69050+018550SY-MT+0079ENDU V0203201N001012200019N0750001N1-00321-00681100441ADDGA1021+012009999GA2021+060009999GF103991011051012501041081MA1100411099461MD1710141+9999MW1001REMMET010NEW NOSIG;EQDQ01+000000PRSWM2
0152010230999991999010209504+69050+018550FM-15+0079ENDU V0209999V000512200019N0112651N1-00301-00801100411ADDGA1021+012009999GA2021+054009999GF104991999999999999999999MA1100311099421MW1001REMMET010NEW NOSIG;EQDQ01+999990APOSP Q02+999990APOSLPQ03+000000PRSWM2
0136010230999991999010210504+69050+018550FM-15+0079ENDU V0209999V001012200019N0112651N1-00401-00701100421ADDGA1021+012009999GF102991999999999999999999MA1100311099421MW1001REMMET010NEW NOSIG;EQDQ01+999990APOSP Q02+999990APOSLPQ03+000000PRSWM2
0130010230999991999010212004+69050+018550SY-MT+0079ENDU V0203101N001012200019N0750001N1-00591-00671100291ADDGA1021+012009999GF103991011051012501041081MA1100201099301MD1710161+9999MW1001REMSYN011 333 91110;MET005NEW ;EQDQ01+000000PRSWM2
0131010230999991999010212504+69050+018550FM-15+0079ENDU V0209999V000512200019N0112651N1-00701-00801100221ADDGA1021+012009999GF102991999999999999999999MA1100101099211MW1001REMMET005NEW ;EQDQ01+999990APOSP Q02+999990APOSLPQ03+000000PRSWM2
0095010230999991999010213504+69050+018550FM-15+0079ENDU V0209999V00051220001CN0099001N1-00801-00801100221ADDMA1100101099211MW1001REMMET011NEW CAVOK ;EQDQ01+999990APOSP Q02+999990APOSLPQ03+000000PRSWM2
0103010230999991999010215004+69050+018550SY-MT+0079ENDU V0202901N000512200019N0750001N1-00771-00831100141ADDGF101991011001999999041011MA1100001099151MD1710151+9999MW1001REMMET011NEW CAVOK ;EQDQ01+000000PRSWM2
0147010230999991999010216204+69050+018550FM-15+0079ENDU V0209999V000510270019N0112651N1-00901-00901100121ADDGA1021+015009999GA2071+027009999GF107991999999999999999999MA1100001099111MW1001REMMET005NEW ;EQDQ01+999990APOSP Q02+999990APOSLPQ03+000000PRSWM2
0147010230999991999010216504+69050+018550FM-15+0079ENDU V0209999C000010270019N0112651N1-00601-00701100111ADDGA1021+015009999GA2071+027009999GF107991999999999999999999MA1100001099111MW1001REMMET005NEW ;EQDQ01+999990APOSP Q02+999990APOSLPQ03+000000PRSWM2
0176010230999991999010218004+69050+018550SY-MT+0079ENDU V0200601N000510150019N0750001N1-00401-00741100021ADDAA199000091GA1071+015009999GF108991051051012501071999KA1120M-00061MA1099901099041MD1710111+9999MW1001REMSYN017 333 11006 91106;MET005NEW ;EQDQ01+000000PRSWM2Q02  00002PRCP99
0131010230999991999010218504+69050+018550FM-15+0079ENDU V0209999V001510150019N0112651N1-00301-00801100001ADDGA1071+015009999GF107991999999999999999999MA1099901099011MW1001REMMET005NEW ;EQDQ01+999990APOSP Q02+999990APOSLPQ03+000000PRSWM2
0131010230999991999010305204+69050+018550FM-15+0079ENDU V0200701N002110135019N0112651N1-00301-00701099801ADDGA1071+013509999GF107991999999999999999999MA1099701098811MW1001REMMET005NEW ;EQDQ01+999990APOSP Q02+999990APOSLPQ03+000000PRSWM2
0205010230999991999010306004+69050+018550SY-MT+0079ENDU V0209999C000010135019N0750001N1-00261-00701099751ADDAA199000091AJ100109199999999GA1071+013509999GF107991061051012501071999IA1279KA1120N-00461MA1099701098791MD1710101+9999MW1001REMSYN023 333 21046 43010 91109;MET005NEW ;EQDQ01+000000PRSWM2Q02  00002PRCP99
0147010230999991999010306504+69050+018550FM-15+0079ENDU V0209999V001010270019N0112651N1-00301-00701099801ADDGA1021+013509999GA2071+027009999GF107991999999999999999999MA1099701098811MW1001REMMET005NEW ;EQDQ01+999990APOSP Q02+999990APOSLPQ03+000000PRSWM2
0147010230999991999010307504+69050+018550FM-15+0079ENDU V0209999C000010540019N0112651N1-00401-00801099801ADDGA1021+015009999GA2071+054009999GF107991999999999999999999MA1099701098811MW1001REMMET005NEW ;EQDQ01+999990APOSP Q02+999990APOSLPQ03+000000PRSWM2
0147010230999991999010309204+69050+018550FM-15+0079ENDU V0209999V001010240019N0112651N1-00501-00701099801ADDGA1021+015009999GA2071+024009999GF107991999999999999999999MA1099701098811MW1001REMMET005NEW ;EQDQ01+999990APOSP Q02+999990APOSLPQ03+000000PRSWM2
0147010230999991999010309504+69050+018550FM-15+0079ENDU V0209999C000010240019N0112651N1-00601-00801099811ADDGA1021+015009999GA2071+024009999GF107991999999999999999999MA1099701098811MW1001REMMET005NEW ;EQDQ01+999990APOSP Q02+999990APOSLPQ03+000000PRSWM2
0147010230999991999010310504+69050+018550FM-15+0079ENDU V0209999V000510240019N0112651N1-00601-00701099811ADDGA1021+015009999GA2071+024009999GF107991999999999999999999MA1099701098811MW1001REMMET005NEW ;EQDQ01+999990APOSP Q02+999990APOSLPQ03+000000PRSWM2
0146010230999991999010312004+69050+018550SY-MT+0079ENDU V0203401N001010240019N0750001N1-00571-00661099771ADDGA1021+015009999GA2071+024009999GF107991021051012501071081MA1099701098791MD1810021+9999MW1001REMSYN011 333 91105;MET005NEW ;EQDQ01+000000PRSWM2
0095010230999991999010312504+69050+018550FM-15+0079ENDU V0209999V00101220001CN0099001N1-00401-00701099691ADDMA1099591098701MW1001REMMET011NEW CAVOK ;EQDQ01+999990APOSP Q02+999990APOSLPQ03+000000PRSWM2
0095010230999991999010313504+69050+018550FM-15+0079ENDU V0209999V00101220001CN0099001N1-00801-00801099701ADDMA1099591098701MW1001REMMET011NEW CAVOK ;EQDQ01+999990APOSP Q02+999990APOSLPQ03+000000PRSWM2
0103010230999991999010315004+69050+018550SY-MT+0079ENDU V0202701N00151220001CN0750001N1-00801-00821099641ADDGF105991021001022501071081MA1099491098651MD1710141+9999MW1001REMMET011NEW CAVOK ;EQDQ01+000000PRSWM2
0095010230999991999010315504+69050+018550FM-15+0079ENDU V0209999V00051220001CN0099001N1-00901-00901099621ADDMA1099491098611MW1001REMMET011NEW CAVOK ;EQDQ01+999990APOSP Q02+999990APOSLPQ03+000000PRSWM2
0095010230999991999010316504+69050+018550FM-15+0079ENDU V0209999V00101220001CN0099001N1-00801-00801099611ADDMA1099491098611MW1001REMMET011NEW CAVOK ;EQDQ01+999990APOSP Q02+999990APOSLPQ03+000000PRSWM2
0166010230999991999010318004+69050+018550SY-MT+0079ENDU V0202401N001012200019N0750001N1-00771-00801099511ADDAA199000091GF104991031001022501071081KA1120M-00251MA1099391098531MD1710121+9999MW1001REMSYN017 333 11025 91105;MET011NEW CAVOK ;EQDQ01+000000PRSWM2Q02  00002PRCP99
0095010230999991999010318504+69050+018550FM-15+0079ENDU V0209999V00151220001CN0099001N1-00801-00801099511ADDMA1099391098511MW1001REMMET011NEW CAVOK ;EQDQ01+999990APOSP Q02+999990APOSLPQ03+000000PRSWM2
0147010230999991999010319504+69050+018550FM-15+0079ENDU V0209999V000510240019N0112651N1-00701-00701099511ADDGA1021+015009999GA2071+024009999GF107991999999999999999999MA1099391098511MW1001REMMET005NEW ;EQDQ01+999990APOSP Q02+999990APOSLPQ03+000000PRSWM2
0113010230999991999010321004+69050+018550SY-MT+0079ENDU V0202401N000510150019N0750001N1-00631-00661099511ADDGA1071+015009999GF107991051051012501071081MA1099391098531MD1510001+9999MW1001REMMET005NEW ;EQDQ01+000000PRSWM2
0147010230999991999010321504+69050+018550FM-15+0079ENDU V0202301N00151000151CN0035001N1-00501-00501099501ADDGA1091+000159999GF109991999999999999999999MA1099391098511MW1711REMMET005NEW ;EQDQ01+999990APOSP Q02+999990APOSLPQ03+000003PRSWM1Q04    003PRSWM1
0147010230999991999010322504+69050+018550FM-15+0079ENDU V0200301N001010120019N0112651N1-00301-00401099601ADDGA1021+001509999GA2071+012009999GF107991999999999999999999MA1099491098611MW1001REMMET005NEW ;EQDQ01+999990APOSP Q02+999990APOSLPQ03+000000PRSWM2
0147010230999991999010323504+69050+018550FM-15+0079ENDU V0209999C000010120019N0112651N1-00401-00401099501ADDGA1021+004509999GA2071+012009999GF107991999999999999999999MA1099391098511MW1001REMMET005NEW ;EQDQ01+999990APOSP Q02+999990APOSLPQ03+000000PRSWM2
0178010230999991999010400004+69050+018550SY-MT+0079ENDU V0209999C000010120019N0150001N1-00361-00391099531ADDAY171061AY221061GA1021+004509999GA2071+012009999GF108991061051004501071999MA1099391098551MD1010021+9999MW1701REMSYN011 333 91107;MET005NEW ;EQDQ01+000000PRSWM2Q02    003PRSWM1
0163010230999991999010400504+69050+018550FM-15+0079ENDU V0209999V000510105019N0090001N1-00401-00401099501ADDGA1021+004509999GA2071+010509999GF107991999999999999999999MA1099391098511MW1711REMMET005NEW ;EQDQ01+999990APOSP Q02+999990APOSLPQ03+000003PRSWM1Q04    003PRSWM1
0163010230999991999010401504+69050+018550FM-15+0079ENDU V0209999V001010075019N0080001N1-00301-00401099491ADDGA1021+004509999GA2071+007509999GF107991999999999999999999MA1099391098511MW1711REMMET005NEW ;EQDQ01+999990APOSP Q02+999990APOSLPQ03+000003PRSWM1Q04    003PRSWM1
0129010230999991999010403004+69050+018550SY-MT+0079ENDU V0202801N000510001519N0040001N1-00331-00361099461ADDAY171031AY271031GA1091+000159999GF109991091999999999999999MA1099391098491MD1610051+9999MW1711REMMET005NEW ;EQDQ01    003PRSWM1
0163010230999991999010404204+69050+018550FM-15+0079ENDU V0209999V000510120019N0112651N1+00301+00301099471ADDGA1021+001509999GA2021+006009999GA3071+012009999GF107991999999999999999999MA1099391098511MW1001REMMET005NEW ;EQDQ01+999990APOSP Q02+999990APOSLPQ03+000000PRSWM2
0147010230999991999010404504+69050+018550FM-15+0079ENDU V0209999V000510120019N0112651N1-00201-00301099491ADDGA1021+001509999GA2071+012009999GF107991999999999999999999MA1099391098511MW1001REMMET005NEW ;EQDQ01+999990APOSP Q02+999990APOSLPQ03+000000PRSWM2
0242010230999991999010406004+69050+018550SY-MT+0079ENDU V0202401N000510135019N0300001N1-00231-00271099431ADDAA199003091AJ100139199999999AY171061AY221061GA1021+003009999GA2071+013509999GF108991061051004501071999IA1239KA1120N-00901MA1099291098461MD1710031+9999MW1021REMSYN023 333 21090 47013 91104;MET010NEW NOSIG;EQDQ01+000000PRSWM2Q02    003PRSWM1
0168010230999991999010406504+69050+018550FM-15+0079ENDU V0209999C000010150019N0112651N1-00201-00301099491ADDGA1021+001509999GA2021+007509999GA3071+015009999GF107991999999999999999999MA1099391098511MW1001REMMET010NEW NOSIG;EQDQ01+999990APOSP Q02+999990APOSLPQ03+000000PRSWM2
0152010230999991999010407504+69050+018550FM-15+0079ENDU V0209999V000510150019N0112651N1-00201-00301099491ADDGA1021+010509999GA2071+015009999GF107991999999999999999999MA1099391098511MW1001REMMET010NEW NOSIG;EQDQ01+999990APOSP Q02+999990APOSLPQ03+000000PRSWM2
0134010230999991999010409004+69050+018550SY-MT+0079ENDU V0209999C000010150019N0500001N1-00231-00261099441ADDGA1021+012009999GA2071+015009999GF107991061051012501071999MA1099391098471MD1210011+9999MW1001REMMET010NEW NOSIG;EQDQ01+000000PRSWM2
0152010230999991999010409504+69050+018550FM-15+0079ENDU V0209999V001010150019N0112651N1-00101-00101099491ADDGA1021+012009999GA2071+015009999GF107991999999999999999999MA1099391098511MW1001REMMET010NEW NOSIG;EQDQ01+999990APOSP Q02+999990APOSLPQ03+000000PRSWM2
0168010230999991999010410504+69050+018550FM-15+0079ENDU V0209999V001010150019N0112651N1-00101-00101099491ADDGA1021+012009999GA2071+015009999GF107991999999999999999999MA1099391098511MW1711REMMET010NEW NOSIG;EQDQ01+999990APOSP Q02+999990APOSLPQ03+000003PRSWM1Q04    003PRSWM1
0167010230999991999010412004+69050+018550SY-MT+0079ENDU V0200401N000510150019N0300001N1-00141-00171099441ADDAY171061AY221061GA1021+010509999GA2071+015009999GF107991061051012501071999MA1099391098471MD1410001+9999MW1711REMSYN011 333 91104;MET010NEW NOSIG;EQDQ01    003PRSWM1
0152010230999991999010412204+69050+018550FM-15+0079ENDU V0200901N002110150019N0112651N1-00101-00101099391ADDGA1021+010509999GA2071+015009999GF107991999999999999999999MA1099291098411MW1001REMMET010NEW NOSIG;EQDQ01+999990APOSP Q02+999990APOSLPQ03+000000PRSWM2
0152010230999991999010412504+69050+018550FM-15+0079ENDU V0209999V000510150019N0112651N1-00101-00201099391ADDGA1021+010509999GA2071+015009999GF107991999999999999999999MA1099291098411MW1001REMMET010NEW NOSIG;EQDQ01+999990APOSP Q02+999990APOSLPQ03+000000PRSWM2
0163010230999991999010413504+69050+018550FM-15+0079ENDU V0209999V001010135019N0112651N1-00101-00201099391ADDGA1021+010509999GA2071+013509999GF107991999999999999999999MA1099291098411MW1711REMMET005NEW ;EQDQ01+999990APOSP Q02+999990APOSLPQ03+000003PRSWM1Q04    003PRSWM1
0161010230999991999010415004+69050+018550SY-MT+0079ENDU V0209999C000010150019N0700001N1-00141-00311099371ADDAY171031AY221031GA1021+010509999GA2071+015009999GF107991061051012501071999MA1099291098401MD1710071+9999MW1221REMMET005NEW ;EQDQ01+000000PRSWM2Q02    003PRSWM1
0147010230999991999010416204+69050+018550FM-15+0079ENDU V0209999C000010150019N0112651N1-00301-00401099291ADDGA1021+010509999GA2071+015009999GF107991999999999999999999MA1099191098311MW1001REMMET005NEW ;EQDQ01+999990APOSP Q02+999990APOSLPQ03+000000PRSWM2
0208010230999991999010418004+69050+018550SY-MT+0079ENDU V0200901N000510150019N0700001N1-00241-00321099301ADDAA199000791AY171061AY221061GA1021+010509999GA2071+015009999GF107991061051012501071999KA1120M-00051MA1099191098331MD1710071+9999MW1021REMSYN017 333 11005 91105;MET005NEW ;EQDQ01+000000PRSWM2Q02    003PRSWM1
0147010230999991999010418504+69050+018550FM-15+0079ENDU V0209999C000010180019N0112651N1-00201-00301099291ADDGA1021+010509999GA2071+018009999GF107991999999999999999999MA1099191098311MW1001REMMET005NEW ;EQDQ01+999990APOSP Q02+999990APOSLPQ03+000000PRSWM2
0147010230999991999010419504+69050+018550FM-15+0079ENDU V0209999V000510180019N0112651N1-00301-00401099291ADDGA1021+010509999GA2071+018009999GF107991999999999999999999MA1099191098311MW1001REMMET005NEW ;EQDQ01+999990APOSP Q02+999990APOSLPQ03+000000PRSWM2
0113010230999991999010421004+69050+018550SY-MT+0079ENDU V0200101N001012200019N0750001N1-00371-00421099231ADDGA1021+015009999GF102991011051012501071001MA1099091098261MD1710071+9999MW1001REMMET005NEW ;EQDQ01+000000PRSWM2
0131010230999991999010421504+69050+018550FM-15+0079ENDU V0202501N000512200019N0112651N1-00701-00801099211ADDGA1021+015009999GF102991999999999999999999MA1099091098211MW1001REMMET005NEW ;EQDQ01+999990APOSP Q02+999990APOSLPQ03+000000PRSWM2
0131010230999991999010422504+69050+018550FM-15+0079ENDU V0202201N001012200019N0112651N1-00901-00901099211ADDGA1021+015009999GF102991999999999999999999MA1099091098211MW1001REMMET005NEW ;EQDQ01+999990APOSP Q02+999990APOSLPQ03+000000PRSWM2
0130010230999991999010500004+69050+018550SY-MT+0079ENDU V0202501N001012200019N0750001N1-00791-00831099211ADDGA1021+015009999GF102991011051012501071011MA1099091098231MD1710031+9999MW1001REMSYN011 333 91104;MET005NEW ;EQDQ01+000000PRSWM2
0131010230999991999010500504+69050+018550FM-15+0079ENDU V0209999C000012200019N0112651N1-00901-01001099211ADDGA1021+015009999GF102991999999999999999999MA1099091098211MW1001REMMET005NEW ;EQDQ01+999990APOSP Q02+999990APOSLPQ03+000000PRSWM2
0131010230999991999010501504+69050+018550FM-15+0079ENDU V0209999C000012200019N0112651N1-01001-01101099221ADDGA1021+015009999GF102991999999999999999999MA1099091098211MW1001REMMET005NEW ;EQDQ01+999990APOSP Q02+999990APOSLPQ03+000000PRSWM2
0103010230999991999010503004+69050+018550SY-MT+0079ENDU V0209999C000012200019N0750001N1-01131-01181099251ADDGF101991001001999999001011MA1099191098271MD1310041+9999MW1001REMMET011NEW CAVOK ;EQDQ01+000000PRSWM2
0095010230999991999010503504+69050+018550FM-15+0079ENDU V0209999V00101220001CN0099001N1-01301-01301099331ADDMA1099191098311MW1001REMMET011NEW CAVOK ;EQDQ01+999990APOSP Q02+999990APOSLPQ03+000000PRSWM2
0131010230999991999010504504+69050+018550FM-15+0079ENDU V0209999V001012200019N0112651N1-01301-01301099331ADDGA1021+024009999GF104991999999999999999999MA1099191098311MW1001REMMET005NEW ;EQDQ01+999990APOSP Q02+999990APOSLPQ03+000000PRSWM2
0226010230999991999010506004+69050+018550SY-MT+0079ENDU V0202001N000510210019N0750001N1-01141-01191099301ADDAA199000091AJ100129199999999GA1021+015009999GA2071+021009999GF107991021051012501071999IA1239KA1120N-01301MA1099191098321MD1310051+9999MW1001REMSYN023 333 21130 47012 91105;MET010NEW NOSIG;EQDQ01+000000PRSWM2Q02  00002PRCP99
0152010230999991999010507204+69050+018550FM-15+0079ENDU V0209999V000510210019N0112651N1-01001-01101099321ADDGA1021+015009999GA2071+021009999GF107991999999999999999999MA1099191098311MW1001REMMET010NEW NOSIG;EQDQ01+999990APOSP Q02+999990APOSLPQ03+000000PRSWM2
0152010230999991999010508204+69050+018550FM-15+0079ENDU V0209999V000510210019N0112651N1-01001-01101099421ADDGA1021+015009999GA2071+021009999GF107991999999999999999999MA1099291098411MW1001REMMET010NEW NOSIG;EQDQ01+999990APOSP Q02+999990APOSLPQ03+000000PRSWM2
0118010230999991999010509004+69050+018550SY-MT+0079ENDU V0201901N001010180019N0750001N1-00991-01041099431ADDGA1071+018009999GF107991041051012501071999MA1099391098451MD1210131+9999MW1001REMMET010NEW NOSIG;EQDQ01+000000PRSWM2
0136010230999991999010510204+69050+018550FM-15+0079ENDU V0209999V000510150019N0112651N1-00901-00901099521ADDGA1071+015009999GF107991999999999999999999MA1099391098511MW1001REMMET010NEW NOSIG;EQDQ01+999990APOSP Q02+999990APOSLPQ03+000000PRSWM2
0136010230999991999010510504+69050+018550FM-15+0079ENDU V0209999V001010150019N0112651N1-00901-00901099621ADDGA1071+015009999GF107991999999999999999999MA1099491098611MW1001REMMET010NEW NOSIG;EQDQ01+999990APOSP Q02+999990APOSLPQ03+000000PRSWM2
0135010230999991999010512004+69050+018550SY-MT+0079ENDU V0201901N001010150019N0750001N1-00851-00891099591ADDGA1071+015009999GF107991061051012501071999MA1099491098601MD1210151+9999MW1001REMSYN011 333 91104;MET010NEW NOSIG;EQDQ01+000000PRSWM2
0136010230999991999010512504+69050+018550FM-15+0079ENDU V0209999C000010150019N0112651N1-00801-00801099611ADDGA1071+015009999GF107991999999999999999999MA1099491098611MW1001REMMET010NEW NOSIG;EQDQ01+999990APOSP Q02+999990APOSLPQ03+000000PRSWM2
0090010230999991999010513504+69050+018550FM-15+0079ENDU V0209999V000510180019N0112651N1-00801-00801999999ADDGA1071+018009999GF107991999999999999999999MW1001REMMET011NEW QO996 ;EQDQ01+000000PRSWM2
0113010230999991999010515004+69050+018550SY-MT+0079ENDU V0209999C000010180019N0750001N1-00741-00781099681ADDGA1071+018009999GF107991051051017501071999MA1099591098701MD1210101+9999MW1001REMMET005NEW ;EQDQ01+000000PRSWM2
0147010230999991999010515504+69050+018550FM-15+0079ENDU V0209999V000510180019N0112651N1-00701-00701099701ADDGA1021+015009999GA2071+018009999GF107991999999999999999999MA1099591098701MW1001REMMET005NEW ;EQDQ01+999990APOSP Q02+999990APOSLPQ03+000000PRSWM2
0163010230999991999010516504+69050+018550FM-15+0079ENDU V0209999V000510180019N0112651N1-00701-00701099811ADDGA1021+015009999GA2071+018009999GF107991999999999999999999MA1099701098811MW1711REMMET005NEW ;EQDQ01+999990APOSP Q02+999990APOSLPQ03+000003PRSWM1Q04    003PRSWM1
0192010230999991999010518004+69050+018550SY-MT+0079ENDU V0209999C000010180019N0300001N1-00661-00701099801ADDAA199000791AY171061AY221061GA1021+015009999GA2071+018009999GF107991061051012501071999KA1120M-00641MA1099701098821MD1210121+9999MW1711REMSYN017 333 11064 91103;MET005NEW ;EQDQ01    003PRSWM1
0147010230999991999010518504+69050+018550FM-15+0079ENDU V0209999C000010210019N0112651N1-00601-00701099911ADDGA1021+015009999GA2071+021009999GF107991999999999999999999MA1099801098911MW1001REMMET005NEW ;EQDQ01+999990APOSP Q02+999990APOSLPQ03+000000PRSWM2
0147010230999991999010519504+69050+018550FM-15+0079ENDU V0209999V000510210019N0112651N1-00701-00701099911ADDGA1021+015009999GA2071+021009999GF107991999999999999999999MA1099801098911MW1001REMMET005NEW ;EQDQ01+999990APOSP Q02+999990APOSLPQ03+000000PRSWM2
0145010230999991999010521004+69050+018550SY-MT+0079ENDU V0202301N001010210019N0700001N1-00631-00671099891ADDGA1021+006009999GA2021+015009999GA3071+021009999GF107991041051008001071999MA1099801098911MD1210091+9999MW1001REMMET005NEW ;EQDQ01+000000PRSWM2
0147010230999991999010521504+69050+018550FM-15+0079ENDU V0209999V000510210019N0112651N1-00701-00701099911ADDGA1021+013509999GA2071+021009999GF107991999999999999999999MA1099801098911MW1001REMMET005NEW ;EQDQ01+999990APOSP Q02+999990APOSLPQ03+000000PRSWM2
0163010230999991999010522504+69050+018550FM-15+0079ENDU V0209999V000510210019N0112651N1-00601-00701100011ADDGA1021+006009999GA2021+012009999GA3071+021009999GF107991999999999999999999MA1099901099011MW1001REMMET005NEW ;EQDQ01+999990APOSP Q02+999990APOSLPQ03+000000PRSWM2
0146010230999991999010600004+69050+018550SY-MT+0079ENDU V0209999C000010210019N0650001N1-00611-00651099981ADDGA1021+006009999GA2071+021009999GF107991041051008001071999MA1099901099001MD1210091+9999MW1001REMSYN011 333 91104;MET005NEW ;EQDQ01+000000PRSWM2
0163010230999991999010600504+69050+018550FM-15+0079ENDU V0209999C000010210019N0112651N1-00601-00601100011ADDGA1021+006009999GA2021+012009999GA3071+021009999GF107991999999999999999999MA1099901099011MW1001REMMET005NEW ;EQDQ01+999990APOSP Q02+999990APOSLPQ03+000000PRSWM2
0147010230999991999010601504+69050+018550FM-15+0079ENDU V0209999C000010135019N0112651N1-00601-00701100011ADDGA1021+006009999GA2071+013509999GF107991999999999999999999MA1099901099011MW1001REMMET005NEW ;EQDQ01+999990APOSP Q02+999990APOSLPQ03+000000PRSWM2
0145010230999991999010603004+69050+018550SY-MT+0079ENDU V0202001N000510210019N0700001N1-00611-00651100011ADDGA1021+006009999GA2021+012009999GA3071+021009999GF107991041051008001071999MA1099901099021MD1010021+9999MW1001REMMET005NEW ;EQDQ01+000000PRSWM2
0147010230999991999010603504+69050+018550FM-15+0079ENDU V0202501N001012200019N0112651N1-00701-00701100011ADDGA1021+009009999GA2021+012009999GF104991999999999999999999MA1099901099011MW1001REMMET005NEW ;EQDQ01+999990APOSP Q02+999990APOSLPQ03+000000PRSWM2
0131010230999991999010604504+69050+018550FM-15+0079ENDU V0202101N001012200019N0112651N1-00901-00901100021ADDGA1021+015009999GF102991999999999999999999MA1099901099011MW1001REMMET005NEW ;EQDQ01+999990APOSP Q02+999990APOSLPQ03+000000PRSWM2
0210010230999991999010606004+69050+018550SY-MT+0079ENDU V0202301N000512200019N0700001N1-01001-01041100001ADDAA199000021AJ100129199999999GA1021+000309999GF199999011001022501071011IA1239KA1120N-01001MA1099901099011MD1510011+9999MW1001REMSYN023 333 21100 47012 91104;MET010NEW NOSIG;EQDQ01+000012SCOTCVQ02+000000PRSWM2
0100010230999991999010606504+69050+018550FM-15+0079ENDU V0209999V00051220001CN0099001N1-01201-01201100031ADDMA1099901099011MW1001REMMET016NEW CAVOK NOSIG;EQDQ01+999990APOSP Q02+999990APOSLPQ03+000000PRSWM2
0100010230999991999010607504+69050+018550FM-15+0079ENDU V0209999V00101220001CN0099001N1-01201-01201100031ADDMA1099901099011MW1001REMMET016NEW CAVOK NOSIG;EQDQ01+999990APOSP Q02+999990APOSLPQ03+000000PRSWM2
0108010230999991999010609004+69050+018550SY-MT+0079ENDU V0202001N001012200019N0750001N1-01281-01331100021ADDGF101991011001022501071001MA1099901099021MD1010011+9999MW1001REMMET016NEW CAVOK NOSIG;EQDQ01+000000PRSWM2
0100010230999991999010609504+69050+018550FM-15+0079ENDU V0209999V00101220001CN0099001N1-01301-01401100041ADDMA1099901099011MW1001REMMET016NEW CAVOK NOSIG;EQDQ01+999990APOSP Q02+999990APOSLPQ03+000000PRSWM2
0100010230999991999010610504+69050+018550FM-15+0079ENDU V0209999V00101220001CN0099001N1-01401-01501100041ADDMA1099901099011MW1001REMMET016NEW CAVOK NOSIG;EQDQ01+999990APOSP Q02+999990APOSLPQ03+000000PRSWM2
0125010230999991999010612004+69050+018550SY-MT+0079ENDU V0202501N000512200019N0750001N1-01451-01521100001ADDGF103991031001022501031091MA1099901099001MD1710021+9999MW1001REMSYN011 333 91105;MET016NEW CAVOK NOSIG;EQDQ01+000000PRSWM2
0152010230999991999010612504+69050+018550FM-15+0079ENDU V0209999V000510210019N0112651N1-01401-01501100041ADDGA1021+015009999GA2071+021009999GF107991999999999999999999MA1099901099011MW1001REMMET010NEW NOSIG;EQDQ01+999990APOSP Q02+999990APOSLPQ03+000000PRSWM2
0147010230999991999010613504+69050+018550FM-15+0079ENDU V0209999V000510210019N0112651N1-01201-01301099931ADDGA1021+015009999GA2071+021009999GF107991999999999999999999MA1099801098911MW1001REMMET005NEW ;EQDQ01+999990APOSP Q02+999990APOSLPQ03+000000PRSWM2
0129010230999991999010615004+69050+018550SY-MT+0079ENDU V0203101N000510180019N0750001N1-01081-01131099901ADDGA1021+012009999GA2071+018009999GF107991051051012501071999MA1099801098911MD1710091+9999MW1001REMMET005NEW ;EQDQ01+000000PRSWM2
0147010230999991999010615504+69050+018550FM-15+0079ENDU V0209999V000510180019N0112651N1-00901-00901099921ADDGA1021+010509999GA2071+018009999GF107991999999999999999999MA1099801098911MW1001REMMET005NEW ;EQDQ01+999990APOSP Q02+999990APOSLPQ03+000000PRSWM2
0147010230999991999010616504+69050+018550FM-15+0079ENDU V0209999V000510180019N0112651N1-00801-00801099821ADDGA1021+012009999GA2071+018009999GF107991999999999999999999MA1099701098811MW1001REMMET005NEW ;EQDQ01+999990APOSP Q02+999990APOSLPQ03+000000PRSWM2
0192010230999991999010618004+69050+018550SY-MT+0079ENDU V0200301N000510150019N0750001N1-00701-00741099811ADDAA199000091GA1021+012009999GA2071+015009999GF107991071051012501071999KA1120M-00701MA1099701098831MD1710081+9999MW1001REMSYN017 333 11070 91105;MET005NEW ;EQDQ01+000000PRSWM2Q02  00002PRCP99
0147010230999991999010618504+69050+018550FM-15+0079ENDU V0209999C000010180019N0112651N1-00701-00701099811ADDGA1021+012009999GA2071+018009999GF107991999999999999999999MA1099701098811MW1001REMMET005NEW ;EQDQ01+999990APOSP Q02+999990APOSLPQ03+000000PRSWM2
0147010230999991999010619504+69050+018550FM-15+0079ENDU V0209999V001010180019N0112651N1-00601-00601099701ADDGA1021+012009999GA2071+018009999GF107991999999999999999999MA1099591098701MW1001REMMET005NEW ;EQDQ01+999990APOSP Q02+999990APOSLPQ03+000000PRSWM2
0129010230999991999010621004+69050+018550SY-MT+0079ENDU V0202801N000510180019N0750001N1-00621-00661099731ADDGA1021+012009999GA2071+018009999GF107991051051012501071999MA1099591098751MD1710081+9999MW1001REMMET005NEW ;EQDQ01+000000PRSWM2
0163010230999991999010621504+69050+018550FM-15+0079ENDU V0209999V000510180019N0112651N1-00601-00601099701ADDGA1021+012009999GA2071+018009999GF107991999999999999999999MA1099591098701MW1791REMMET005NEW ;EQDQ01+999990APOSP Q02+999990APOSLPQ03+000003PRSWM1Q04    003PRSWM1
0163010230999991999010622504+69050+018550FM-15+0079ENDU V0209999V001010120019N0090001N1-00501-00601099691ADDGA1021+009009999GA2071+012009999GF107991999999999999999999MA1099591098701MW1851REMMET005NEW ;EQDQ01+999990APOSP Q02+999990APOSLPQ03+000003PRSWM1Q04    003PRSWM1
0146010230999991999010700004+69050+018550SY-MT+0079ENDU V0202901N002110001519N0030001N1-00491-00551099701ADDAY181061AY221061GA1091+000159999GF109991091999999999999999MA1099591098721MD1710031+9999MW1851REMSYN011 333 91107;MET005NEW ;EQDQ01    003PRSWM1
0147010230999991999010700504+69050+018550FM-15+0079ENDU V0209999V00151000151CN0020001N1-00501-00501099691ADDGA1091+000159999GF109991999999999999999999MA1099591098701MW1861REMMET005NEW ;EQDQ01+999990APOSP Q02+999990APOSLPQ03+000003PRSWM1Q04    003PRSWM1
0163010230999991999010701504+69050+018550FM-15+0079ENDU V0209999V001010120019N0112651N1-00501-00501099601ADDGA1021+002409999GA2021+006009999GA3071+012009999GF107991999999999999999999MA1099491098611MW1001REMMET005NEW ;EQDQ01+999990APOSP Q02+999990APOSLPQ03+000000PRSWM2
0099010230999991999010703004+69050+018550FM-12+0079ENDU V0200101N000510060019N0070001N1-00451-00491099631ADDAY181031AY221031GF107991061081002501071999MA1099531098651MD1710071+9999MW1851EQDQ01+999990APOA  
0163010230999991999010704204+69050+018550FM-15+0079ENDU V0209999C000010210019N0112651N1-00501-00501099601ADDGA1021+006009999GA2021+009009999GA3071+021009999GF107991999999999999999999MA1099491098611MW1001REMMET005NEW ;EQDQ01+999990APOSP Q02+999990APOSLPQ03+000000PRSWM2
0163010230999991999010704504+69050+018550FM-15+0079ENDU V0209999C000010210019N0112651N1-00501-00601099601ADDGA1021+006009999GA2021+012009999GA3071+021009999GF107991999999999999999999MA1099491098611MW1001REMMET005NEW ;EQDQ01+999990APOSP Q02+999990APOSLPQ03+000000PRSWM2
0258010230999991999010706004+69050+018550SY-MT+0079ENDU V0202901N000510120019N0300001N1-00561-00601099541ADDAA199001091AJ100169199999999AY181061AY221061GA1021+009009999GA2071+012009999GF107991051081008001071999IA1239KA1120N-00761MA1099391098561MD1710091+9999MW1021REMSYN023 333 21076 47016 91106;MET026NEW TEMPO 2000 SHSN VV012;EQDQ01+000000PRSWM2Q02    003PRSWM1
0170010230999991999010707204+69050+018550FM-15+0079ENDU V0209999V00151000151CN0020001N1-00401-00401099501ADDGA1091+000159999GF109991999999999999999999MA1099391098511MW1861REMMET028NEW TEMPO 8000 -SHSN BKN020;EQDQ01+999990APOSP Q02+999990APOSLPQ03+000003PRSWM1Q04    003PRSWM1
0184010230999991999010707504+69050+018550FM-15+0079ENDU V0209999V001510105019N0050001N1-00401-00401099501ADDGA1021+004509999GA2071+010509999GF107991999999999999999999MA1099391098511MW1161REMMET026NEW TEMPO 2000 SHSN VV012;EQDQ01+999990APOSP Q02+999990APOSLPQ03+000003PRSWM1Q04    003PRSWM1
0166010230999991999010709004+69050+018550SY-MT+0079ENDU V0201701N001510120019N0070001N1-00351-00391099441ADDAY181031AY221031GA1021+001809999GA2071+012009999GF107991061081001501071081MA1099391098471MD1710091+9999MW1851REMMET026NEW TEMPO 2000 SHSN VV012;EQDQ01    003PRSWM1
0184010230999991999010709504+69050+018550FM-15+0079ENDU V0209999V001510105019N0030001N1-00201-00201099391ADDGA1021+002409999GA2071+010509999GF107991999999999999999999MA1099291098411MW1851REMMET026NEW TEMPO 2000 SHSN VV012;EQDQ01+999990APOSP Q02+999990APOSLPQ03+000003PRSWM1Q04    003PRSWM1
0170010230999991999010710504+69050+018550FM-15+0079ENDU V0202701N00511000151CN0010001N1-00101-00201099391ADDGA1091+000159999GF109991999999999999999999MA1099291098411MW1861REMMET028NEW TEMPO 8000 -SHSN BKN020;EQDQ01+999990APOSP Q02+999990APOSLPQ03+000003PRSWM1Q04    003PRSWM1
0199010230999991999010712004+69050+018550SY-MT+0079ENDU V0202601N003110105019N0300001N1-00181-00271099411ADDAY181061AY221061GA1021+002409999GA2071+010509999GF199999051081002501071081MA1099291098441MD1710031+9999MW1851REMSYN011 333 91119;MET026NEW TEMPO 0800 SHSN VV006;EQDQ01+000062SCOTCVQ02    003PRSWM1
0170010230999991999010712504+69050+018550FM-15+0079ENDU V0202601N00361000151CN0009001N1-00101-00201099391ADDGA1091+000159999GF109991999999999999999999MA1099291098411MW1861REMMET028NEW TEMPO 8000 -SHSN BKN020;EQDQ01+999990APOSP Q02+999990APOSLPQ03+000003PRSWM1Q04    003PRSWM1
0147010230999991999010713504+69050+018550FM-15+0079ENDU V0202601N004112200019N0112651N1-00201-00201099391ADDGA1021+004509999GA2021+009009999GF104991999999999999999999MA1099291098411MW1001REMMET005NEW ;EQDQ01+999990APOSP Q02+999990APOSLPQ03+000000PRSWM2
0151010230999991999010715004+69050+018550SY-MT+0079ENDU V0202701N003112200019N0100001N1-00171-00471099381ADDAY181031AY201031GA1021+004509999GA2021+009009999GF104991041021004501061999MA1099291098411MD1710031+9999MW1151MW2161REMMET005NEW ;EQDQ01    003PRSWM1
0147010230999991999010715504+69050+018550FM-15+0079ENDU V0202701N005712200019N0112651N1-00101-00401099281ADDGA1021+004509999GA2021+010509999GF104991999999999999999999MA1099191098311MW1001REMMET005NEW ;EQDQ01+999990APOSP Q02+999990APOSLPQ03+000000PRSWM2
0147010230999991999010716504+69050+018550FM-15+0079ENDU V0202701N00621000151CN0025001N1+00001-00201099281ADDGA1091+000159999GF109991999999999999999999MA1099191098311MW1861REMMET005NEW ;EQDQ01+999990APOSP Q02+999990APOSLPQ03+000003PRSWM1Q04    003PRSWM1
0176010230999991999010718004+69050+018550SY-MT+0079ENDU V0202601N006210001519N0050001N1+00041-00091099281ADDAA199002091AY181061AY201061GA1091+000159999GF109991091999999999999999KA1120M+00041MA1099191098311MD1710101+9999MW1851REMSYN017 333 10004 91119;MET005NEW ;EQDQ01    003PRSWM1
0147010230999991999010718504+69050+018550FM-15+0079ENDU V0202701N00771000151CN0018001N1+00001+00001099281ADDGA1091+000159999GF109991999999999999999999MA1099191098311MW1861REMMET005NEW ;EQDQ01+999990APOSP Q02+999990APOSLPQ03+000003PRSWM1Q04    003PRSWM1
0147010230999991999010719504+69050+018550FM-15+0079ENDU V0202701N00621000151CN0008001N1+00001+00001099281ADDGA1091+000159999GF109991999999999999999999MA1099191098311MW1861REMMET005NEW ;EQDQ01+999990APOSP Q02+999990APOSLPQ03+000003PRSWM1Q04    003PRSWM1
0129010230999991999010721004+69050+018550SY-MT+0079ENDU V0202801N006210001519N0008001N1+00011-01021099301ADDAY181031AY221031GA1091+000159999GF109991091999999999999999MA1099191098331MD1310021+9999MW1861REMMET005NEW ;EQDQ01    003PRSWM1
0147010230999991999010721504+69050+018550FM-15+0079ENDU V0202701N00311000151CN0010001N1+00001+00002099381ADDGA1091+000159999GF109991999999999999999999MA1099291098411MW1861REMMET005NEW ;EQDQ01+999990APOSP Q02+999990APOSLPQ03+000003PRSWM1Q04    003PRSWM1
0147010230999991999010722504+69050+018550FM-15+0079ENDU V0202801N00411000151CN0015001N1+00001+00001099381ADDGA1091+000159999GF109991999999999999999999MA1099291098411MW1881REMMET005NEW ;EQDQ01+999990APOSP Q02+999990APOSLPQ03+000003PRSWM1Q04    003PRSWM1
0200010230999991999010800004+69050+018550SY-MT+0079ENDU V0202801N004110120019N0100001N1+00001-00031099401ADDAY181061AY221061GA1021+001509999GA2021+007509999GA3071+012009999GF199999051081001501071999MA1099291098431MD1210101+9999MW1161MW2271REMSYN011 333 91123;MET005NEW ;EQDQ01+000052SCOTCVQ02    003PRSWM1
0163010230999991999010800504+69050+018550FM-15+0079ENDU V0202801N003110075019N0030001N1+00001+00001099481ADDGA1021+001509999GA2071+007509999GF107991999999999999999999MA1099391098511MW1851REMMET005NEW ;EQDQ01+999990APOSP Q02+999990APOSLPQ03+000003PRSWM1Q04    003PRSWM1
0163010230999991999010801504+69050+018550FM-15+0079ENDU V0202701N002110090019N0030001N1+00001+00001099481ADDGA1021+001509999GA2071+009009999GF107991999999999999999999MA1099391098511MW1851REMMET005NEW ;EQDQ01+999990APOSP Q02+999990APOSLPQ03+000003PRSWM1Q04    003PRSWM1
0183010230999991999010803004+69050+018550SY-MT+0079ENDU V0202901N001510120019N0080001N1-00061-00091099531ADDAY181031AY221031GA1021+001509999GA2021+003009999GA3071+012009999GF199999051081001501071999MA1099391098551MD1210121+9999MW1161MW2261REMMET005NEW ;EQDQ01+000062SCOTCVQ02    003PRSWM1
0163010230999991999010803504+69050+018550FM-15+0079ENDU V0209999V000510120019N0080001N1-00101-00101099591ADDGA1021+000609999GA2021+004509999GA3071+012009999GF107991999999999999999999MA1099491098611MW1001REMMET005NEW ;EQDQ01+999990APOSP Q02+999990APOSLPQ03+000000PRSWM2
0163010230999991999010804504+69050+018550FM-15+0079ENDU V0209999V000510090019N0080001N1-00101-00101099591ADDGA1021+002109999GA2071+009009999GF107991999999999999999999MA1099491098611MW1851REMMET005NEW ;EQDQ01+999990APOSP Q02+999990APOSLPQ03+000003PRSWM1Q04    003PRSWM1
0242010230999991999010806004+69050+018550SY-MT+0079ENDU V0209999C000010075019N0090001N1-00041-00071099631ADDAA199007191AJ100309199999999AY181061AY221061GA1021+002109999GA2071+007509999GF107991051081002501071999IA1239KA1120N-00151MA1099491098651MD1210101+9999MW1851REMSYN023 333 21015 47030 91112;MET026NEW TEMPO 2000 SHSN VV010;EQDQ01    003PRSWM1
0184010230999991999010806504+69050+018550FM-15+0079ENDU V0209999V000510120019N0112651N1-00201-00201099681ADDGA1021+002109999GA2021+007509999GA3071+012009999GF107991999999999999999999MA1099591098701MW1001REMMET026NEW TEMPO 2000 SHSN VV010;EQDQ01+999990APOSP Q02+999990APOSLPQ03+000000PRSWM2
0184010230999991999010807504+69050+018550FM-15+0079ENDU V0209999C000010120019N0112651N1-00201-00201099791ADDGA1021+003009999GA2021+007509999GA3071+012009999GF107991999999999999999999MA1099701098811MW1001REMMET026NEW TEMPO 2000 SHSN VV010;EQDQ01+999990APOSP Q02+999990APOSLPQ03+000000PRSWM2
0182010230999991999010809004+69050+018550SY-MT+0079ENDU V0202701N000510240019N0250001N1-00161-00191099781ADDAY181031AY221031GA1021+000309999GA2021+012009999GA3071+024009999GF107991051081000251071999MA1099701098801MD1210151+9999MW1021REMMET010NEW NOSIG;EQDQ01+000000PRSWM2Q02    003PRSWM1
0200010230999991999010809504+69050+018550FM-15+0079ENDU V0209999V000510120019N0060001N1-00201-00201099791ADDGA1021+000309999GA2021+007509999GA3071+012009999GF107991999999999999999999MA1099701098811MW1851REMMET026NEW TEMPO 2000 SHSN VV010;EQDQ01+999990APOSP Q02+999990APOSLPQ03+000003PRSWM1Q04    003PRSWM1
0200010230999991999010810504+69050+018550FM-15+0079ENDU V0202901N003110120019N0050001N1-00101-00101099891ADDGA1021+000309999GA2021+007509999GA3071+012009999GF107991999999999999999999MA1099801098911MW1851REMMET026NEW TEMPO 2000 SHSN VV010;EQDQ01+999990APOSP Q02+999990APOSLPQ03+000003PRSWM1Q04    003PRSWM1
0199010230999991999010812004+69050+018550SY-MT+0079ENDU V0203201N003610120019N0050001N1-00121-00151099951ADDAY181061AY221061GA1021+001509999GA2021+007509999GA3071+012009999GF108991061081001501071999MA1099901098971MD1210171+9999MW1851REMSYN011 333 91114;MET026NEW TEMPO 2000 SHSN VV010;EQDQ01    003PRSWM1
0200010230999991999010812504+69050+018550FM-15+0079ENDU V0203001N005110120019N0050001N1-00101-00401099991ADDGA1021+003009999GA2021+007509999GA3071+012009999GF107991999999999999999999MA1099901099011MW1851REMMET026NEW TEMPO 2000 SHSN VV010;EQDQ01+999990APOSP Q02+999990APOSLPQ03+000003PRSWM1Q04    003PRSWM1
0163010230999991999010813504+69050+018550FM-15+0079ENDU V0202901N004110090019N0040001N1-00201-00401100001ADDGA1021+006009999GA2071+009009999GF107991999999999999999999MA1099901099011MW1161REMMET005NEW ;EQDQ01+999990APOSP Q02+999990APOSLPQ03+000003PRSWM1Q04    003PRSWM1
0151010230999991999010815004+69050+018550SY-MT+0079ENDU V0202801N003610105019N0200001N1-00201-00431100071ADDAY181031AY221031GA1021+006009999GA2071+010509999GF107991061081008001071999MA1100001099091MD1210121+9999MW1021MW2851REMMET005NEW ;EQDQ01    003PRSWM1
0147010230999991999010815504+69050+018550FM-15+0079ENDU V0202901N002610120019N0112651N1-00201-00501100101ADDGA1021+007509999GA2071+012009999GF107991999999999999999999MA1100001099111MW1001REMMET005NEW ;EQDQ01+999990APOSP Q02+999990APOSLPQ03+000000PRSWM2
0147010230999991999010816504+69050+018550FM-15+0079ENDU V0202901N004610150019N0112651N1-00201-00601100101ADDGA1021+009009999GA2071+015009999GF107991999999999999999999MA1100001099111MW1001REMMET005NEW ;EQDQ01+999990APOSP Q02+999990APOSLPQ03+000000PRSWM2
0192010230999991999010818004+69050+018550SY-MT+0079ENDU V0202901N004110135019N0200001N1-00261-00591100141ADDAA199000391AY181061AY221061GA1021+007809999GA2071+013509999GF108991081081008001999999KA1120M-00041MA1100101099161MD1210071+9999MW1851REMSYN017 333 11004 91117;MET005NEW ;EQDQ01    003PRSWM1
0147010230999991999010818504+69050+018550FM-15+0079ENDU V0202801N003610135019N0112651N1-00301-00801100201ADDGA1021+007809999GA2071+013509999GF107991999999999999999999MA1100101099211MW1001REMMET005NEW ;EQDQ01+999990APOSP Q02+999990APOSLPQ03+000000PRSWM2
0147010230999991999010819504+69050+018550FM-15+0079ENDU V0203001N003110150019N0112651N1-00401-00701100201ADDGA1021+010509999GA2071+015009999GF107991999999999999999999MA1100101099211MW1001REMMET005NEW ;EQDQ01+999990APOSP Q02+999990APOSLPQ03+000000PRSWM2
0161010230999991999010821004+69050+018550SY-MT+0079ENDU V0202601N001510150019N0300001N1-00521-00751100271ADDAY181031AY221031GA1021+012009999GA2071+015009999GF107991051081012501071999MA1100201099281MD1210121+9999MW1011REMMET005NEW ;EQDQ01+000000PRSWM2Q02    003PRSWM1
0147010230999991999010821504+69050+018550FM-15+0079ENDU V0209999V001510150019N0112651N1-00601-00801100311ADDGA1021+012009999GA2071+015009999GF107991999999999999999999MA1100201099311MW1001REMMET005NEW ;EQDQ01+999990APOSP Q02+999990APOSLPQ03+000000PRSWM2
0131010230999991999010822504+69050+018550FM-15+0079ENDU V0209999V001012200019N0112651N1-00701-00901100321ADDGA1021+015009999GF104991999999999999999999MA1100201099311MW1001REMMET005NEW ;EQDQ01+999990APOSP Q02+999990APOSLPQ03+000000PRSWM2
0178010230999991999010900004+69050+018550SY-MT+0079ENDU V0201901N001012200019N0750001N1-00841-01041100341ADDAY181061AY221061GA1021+015009999GF199999011081012501071001MA1100201099351MD1210071+9999MW1011REMSYN011 333 91111;MET005NEW ;EQDQ01+000012SCOTCVQ02+000000PRSWM2Q03    003PRSWM1
0131010230999991999010900504+69050+018550FM-15+0079ENDU V0209999V001012200019N0112651N1-01001-01101100441ADDGA1021+015009999GF102991999999999999999999MA1100311099421MW1001REMMET005NEW ;EQDQ01+999990APOSP Q02+999990APOSLPQ03+000000PRSWM2
0131010230999991999010901504+69050+018550FM-15+0079ENDU V0209999V001012200019N0112651N1-01101-01201100441ADDGA1021+015009999GF102991999999999999999999MA1100311099421MW1001REMMET005NEW ;EQDQ01+999990APOSP Q02+999990APOSLPQ03+000000PRSWM2
0129010230999991999010903004+69050+018550SY-MT+0079ENDU V0209999C000010180019N0750001N1-01091-01221100411ADDGA1021+015009999GA2071+018009999GF107991021081012501071999MA1100311099421MD1210071+9999MW1001REMMET005NEW ;EQDQ01+000000PRSWM2
0147010230999991999010903504+69050+018550FM-15+0079ENDU V0209999V001010180019N0112651N1-01101-01301100441ADDGA1021+013509999GA2071+018009999GF107991999999999999999999MA1100311099421MW1001REMMET005NEW ;EQDQ01+999990APOSP Q02+999990APOSLPQ03+000000PRSWM2
0147010230999991999010904504+69050+018550FM-15+0079ENDU V0209999C000010150019N0112651N1-01001-01201100441ADDGA1021+009009999GA2071+015009999GF107991999999999999999999MA1100311099421MW1001REMMET005NEW ;EQDQ01+999990APOSP Q02+999990APOSLPQ03+000000PRSWM2
0210010230999991999010906004+69050+018550SY-MT+0079ENDU V0202901N001010150019N0550001N1-01001-01091100421ADDAA199000791AJ100309199999999GA1021+009009999GA2071+015009999GF107991061081008001071999IA1239KA1120N-01151MA1100311099431MD1110011+9999MW1001REMSYN023 333 21115 47030 91108;MET010NEW NOSIG;EQDQ01+000000PRSWM2
0185010230999991999010906504+69050+018550FM-15+0079ENDU V0209999V001010105019N0112651N1-00801-00901100431ADDGA1021+007509999GA2071+010509999GF107991999999999999999999MA1100311099421MW1161REMMET027NEW TEMPO 3000 -SHSN VV012;EQDQ01+999990APOSP Q02+999990APOSLPQ03+000003PRSWM1Q04    003PRSWM1
0184010230999991999010908204+69050+018550FM-15+0079ENDU V0209999V001010105019N0050001N1-00901-00901100541ADDGA1021+007509999GA2071+010509999GF107991999999999999999999MA1100411099521MW1851REMMET026NEW TEMPO 1000 SHSN VV008;EQDQ01+999990APOSP Q02+999990APOSLPQ03+000003PRSWM1Q04    003PRSWM1
0156010230999991999010909004+69050+018550SY-MT+0079ENDU V0203001N003610060019N0050001N1-00781-00841100461ADDAY181031AY221031GA1071+006009999GF108991071081008001999999MA1100411099471MD1210041+9999MW1851MW2861REMMET026NEW TEMPO 1000 SHSN VV008;EQDQ01    003PRSWM1
0168010230999991999010909504+69050+018550FM-15+0079ENDU V0209999V00151000151CN0020001N1-00601-00601100531ADDGA1091+000159999GF109991999999999999999999MA1100411099521MW1861REMMET026NEW TEMPO 1000 SHSN VV008;EQDQ01+999990APOSP Q02+999990APOSLPQ03+000003PRSWM1Q04    003PRSWM1
0184010230999991999010910504+69050+018550FM-15+0079ENDU V0202001N002610090019N0112651N1-00601-00701100421ADDGA1021+001509999GA2071+009009999GF107991999999999999999999MA1100311099421MW1161REMMET026NEW TEMPO 1000 SHSN VV008;EQDQ01+999990APOSP Q02+999990APOSLPQ03+000003PRSWM1Q04    003PRSWM1
0152010230999991999010912004+69050+018550SY-MT+0079ENDU V0201901N002610001519N0025001N1-00571-00611100441ADDAY181061AY221061GA1091+000159999GF109991091999999999999999MA1100311099451MD1710021+9999MW1851MW2861REMSYN011 333 91114;MET005NEW ;EQDQ01    003PRSWM1
0147010230999991999010912504+69050+018550FM-15+0079ENDU V0202501N002610105019N0112651N1-00501-00501100521ADDGA1021+002409999GA2071+010509999GF107991999999999999999999MA1100411099521MW1001REMMET005NEW ;EQDQ01+999990APOSP Q02+999990APOSLPQ03+000000PRSWM2
0163010230999991999010914204+69050+018550FM-15+0079ENDU V0209999V001510105019N0070001N1-00401-00501100621ADDGA1021+006009999GA2071+010509999GF107991999999999999999999MA1100511099621MW1851REMMET005NEW ;EQDQ01+999990APOSP Q02+999990APOSLPQ03+000003PRSWM1Q04    003PRSWM1
0145010230999991999010915004+69050+018550SY-MT+0079ENDU V0202901N003110105019N0090001N1-00371-00491100601ADDAY181031AY221031GA1021+006009999GA2071+010509999GF107991061081008001061999MA1100511099611MD1210161+9999MW1851REMMET005NEW ;EQDQ01    003PRSWM1
0147010230999991999010915504+69050+018550FM-15+0079ENDU V0202801N003110120019N0112651N1-00501-00601100721ADDGA1021+006009999GA2071+012009999GF107991999999999999999999MA1100611099721MW1001REMMET005NEW ;EQDQ01+999990APOSP Q02+999990APOSLPQ03+000000PRSWM2
0147010230999991999010916504+69050+018550FM-15+0079ENDU V0202901N002612200019N0112651N1-00701-00801100731ADDGA1021+007509999GA2021+012009999GF104991999999999999999999MA1100611099721MW1001REMMET005NEW ;EQDQ01+999990APOSP Q02+999990APOSLPQ03+000000PRSWM2
0208010230999991999010918004+69050+018550SY-MT+0079ENDU V0202801N003612200019N0700001N1-00911-00981100731ADDAA199002091AY181061AY221061GA1021+009009999GF199999011081008001061001KA1120M-00311MA1100611099731MD1210121+9999MW1011REMSYN017 333 11031 91113;MET005NEW ;EQDQ01+000012SCOTCVQ02+000000PRSWM2Q03    003PRSWM1
0131010230999991999010918504+69050+018550FM-15+0079ENDU V0202801N002112200019N0112651N1-01101-01201100851ADDGA1021+009009999GF102991999999999999999999MA1100711099821MW1001REMMET005NEW ;EQDQ01+999990APOSP Q02+999990APOSLPQ03+000000PRSWM2
0130010230999991999011100004+69050+018550SY-MT+0079ENDU V0201501N000510150019N0700001N1-01301-01461101541ADDGA1071+015009999GF107991051081012501071999MA1101391100531MD1710031+9999MW1001REMSYN011 333 91105;MET005NEW ;EQDQ01+000000PRSWM2
0131010230999991999011100504+69050+018550FM-15+0079ENDU V0209999C000010150019N0112651N1-01301-01501101531ADDGA1071+015009999GF107991999999999999999999MA1101391100491MW1001REMMET005NEW ;EQDQ01+999990APOSP Q02+999990APOSLPQ03+000000PRSWM2
0147010230999991999011101504+69050+018550FM-15+0079ENDU V0209999C000010150019N0112651N1-01201-01401101531ADDGA1021+010509999GA2071+015009999GF107991999999999999999999MA1101391100491MW1001REMMET005NEW ;EQDQ01+999990APOSP Q02+999990APOSLPQ03+000000PRSWM2
0113010230999991999011103004+69050+018550SY-MT+0079ENDU V0209999C000010135019N0700001N1-01191-01311101481ADDGA1071+013509999GF107991061081012501071999MA1101391100481MD1510051+9999MW1001REMMET005NEW ;EQDQ01+000000PRSWM2
0147010230999991999011103504+69050+018550FM-15+0079ENDU V0209999C000010150019N0112651N1-01101-01301101521ADDGA1021+012009999GA2071+015009999GF107991999999999999999999MA1101391100491MW1001REMMET005NEW ;EQDQ01+999990APOSP Q02+999990APOSLPQ03+000000PRSWM2
0163010230999991999011104504+69050+018550FM-15+0079ENDU V0209999V001010600019N0112651N1-01101-01301101521ADDGA1021+012009999GA2021+021009999GA3071+060009999GF107991999999999999999999MA1101391100491MW1001REMMET005NEW ;EQDQ01+999990APOSP Q02+999990APOSLPQ03+000000PRSWM2
0237010230999991999011106004+69050+018550SY-MT+0079ENDU V0202701N000510210019N0700001N1-01261-01391101481ADDAA199000091AJ100359199999999GA1021+012009999GA2071+021009999GF199999031081012501071011IA1239KA1120N-01511MA1101391100471MD1510011+9999MW1001REMSYN023 333 21151 47035 91106;MET005NEW ;EQDQ01+000062SCOTCVQ02+000000PRSWM2Q03  00002PRCP99
0152010230999991999011106504+69050+018550FM-15+0079ENDU V0209999C000010210019N0112651N1-01101-01201101521ADDGA1021+012009999GA2071+021009999GF107991999999999999999999MA1101391100491MW1001REMMET010NEW NOSIG;EQDQ01+999990APOSP Q02+999990APOSLPQ03+000000PRSWM2
0168010230999991999011107504+69050+018550FM-15+0079ENDU V0209999V001010210019N0112651N1-01201-01301101531ADDGA1021+009009999GA2021+012009999GA3071+021009999GF107991999999999999999999MA1101391100491MW1001REMMET010NEW NOSIG;EQDQ01+999990APOSP Q02+999990APOSLPQ03+000000PRSWM2
0151010230999991999011109004+69050+018550SY-MT+0079ENDU V0202001N001010210019N0750001N1-01221-01341101481ADDGA1021+009009999GA2071+021009999GF199999021081008001041011MA1101391100471MD1410001+9999MW1001REMMET011NEW NOSIG ;EQDQ01+000062SCOTCVQ02+000000PRSWM2
0184010230999991999011110204+69050+018550FM-15+0079ENDU V0209999V000510210019N0112651N1-01101-01201101521ADDGA1021+009009999GA2021+012009999GA3071+021009999GF107991999999999999999999MA1101391100491MW1001REMMET026NEW TEMPO 2000 SHSN VV010;EQDQ01+999990APOSP Q02+999990APOSLPQ03+000000PRSWM2
0201010230999991999011110504+69050+018550FM-15+0079ENDU V0209999C000010210019N0112651N1-01001-01101101521ADDGA1021+009009999GA2021+012009999GA3071+021009999GF107991999999999999999999MA1101391100491MW1851REMMET027NEW TEMPO 2000 SHSN VV010 ;EQDQ01+999990APOSP Q02+999990APOSLPQ03+000003PRSWM1Q04    003PRSWM1
0183010230999991999011112004+69050+018550SY-MT+0079ENDU V0209999C000010120019N0150001N1-00931-01051101541ADDAY181061AY221061GA1021+009009999GA2071+012009999GF108991051081008001071999MA1101391100531MD1210061+9999MW1851REMSYN011 333 91106;MET026NEW TEMPO 2000 SHSN VV010;EQDQ01    003PRSWM1
0184010230999991999011112504+69050+018550FM-15+0079ENDU V0209999C000010120019N0112651N1-00901-00901101621ADDGA1021+007509999GA2071+012009999GF107991999999999999999999MA1101491100591MW1161REMMET026NEW TEMPO 2000 SHSN VV010;EQDQ01+999990APOSP Q02+999990APOSLPQ03+000003PRSWM1Q04    003PRSWM1
0163010230999991999011113504+69050+018550FM-15+0079ENDU V0209999C000010120019N0112651N1-00901-01001101621ADDGA1021+007509999GA2071+012009999GF107991999999999999999999MA1101491100591MW1851REMMET005NEW ;EQDQ01+999990APOSP Q02+999990APOSLPQ03+000003PRSWM1Q04    003PRSWM1
0145010230999991999011115004+69050+018550SY-MT+0079ENDU V0202001N001010105019N0200001N1-00791-00911101591ADDAY181031AY221031GA1021+007509999GA2071+010509999GF108991071081008001071999MA1101491100591MD1210061+9999MW1851REMMET005NEW ;EQDQ01    003PRSWM1
0163010230999991999011115504+69050+018550FM-15+0079ENDU V0209999V001510105019N0080001N1-00801-00901101611ADDGA1021+007509999GA2071+010509999GF107991999999999999999999MA1101491100591MW1851REMMET005NEW ;EQDQ01+999990APOSP Q02+999990APOSLPQ03+000003PRSWM1Q04    003PRSWM1
0163010230999991999011116504+69050+018550FM-15+0079ENDU V0202001N002110135019N0112651N1-00801-00901101611ADDGA1021+009009999GA2071+013509999GF107991999999999999999999MA1101491100591MW1851REMMET005NEW ;EQDQ01+999990APOSP Q02+999990APOSLPQ03+000003PRSWM1Q04    003PRSWM1
0240010230999991999011118004+69050+018550SY-MT+0079ENDU V0201601N000510240019N0550001N1-00891-00981101641ADDAA199000191AY181061AY221061GA1021+013509999GA2071+024009999GF199999031081012501071001KA1120M+99999MA1101491100631MD1210041+9999MW1261REMSYN017 333 11126 91107;MET005NEW ;EQDQ01+000052SCOTCVQ02+000000PRSWM2Q03    003PRSWM1Q04 -01262ATMX  
0131010230999991999011118504+69050+018550FM-15+0079ENDU V0209999V001012200019N0112651N1-01001-01101101721ADDGA1021+015009999GF102991999999999999999999MA1101591100691MW1001REMMET005NEW ;EQDQ01+999990APOSP Q02+999990APOSLPQ03+000000PRSWM2
0129010230999991999011121004+69050+018550SY-MT+0079ENDU V0202401N001012200019N0750001N1-01091-01171101671ADDGA1021+013509999GA2021+024009999GF103991011081012501071001MA1101591100661MD1110031+9999MW1001REMMET005NEW ;EQDQ01+000000PRSWM2
0147010230999991999011121504+69050+018550FM-15+0079ENDU V0209999C000012200019N0112651N1-01201-01301101731ADDGA1021+012009999GA2021+024009999GF104991999999999999999999MA1101591100691MW1001REMMET005NEW ;EQDQ01+999990APOSP Q02+999990APOSLPQ03+000000PRSWM2
0147010230999991999011122504+69050+018550FM-15+0079ENDU V0209999V000512200019N0112651N1-01301-01401101731ADDGA1021+012009999GA2021+024009999GF104991999999999999999999MA1101591100691MW1001REMMET005NEW ;EQDQ01+999990APOSP Q02+999990APOSLPQ03+000000PRSWM2
0146010230999991999011200004+69050+018550SY-MT+0079ENDU V0209999C000012200019N0750001N1-01461-01581101711ADDGA1021+010509999GA2021+021009999GF103991021081012501071001MA1101591100701MD1210041+9999MW1001REMSYN011 333 91107;MET005NEW ;EQDQ01+000000PRSWM2
0131010230999991999011200504+69050+018550FM-15+0079ENDU V0209999V000512200019N0112651N1-01601-01701101751ADDGA1021+010509999GF102991999999999999999999MA1101591100691MW1001REMMET005NEW ;EQDQ01+999990APOSP Q02+999990APOSLPQ03+000000PRSWM2
0095010230999991999011201504+69050+018550FM-15+0079ENDU V0209999V00051220001CN0099001N1-01701-01801101751ADDMA1101591100691MW1001REMMET011NEW CAVOK ;EQDQ01+999990APOSP Q02+999990APOSLPQ03+000000PRSWM2
0103010230999991999011203004+69050+018550SY-MT+0079ENDU V0202101N000512200019N0750001N1-01771-01881101691ADDGF102991021001999999071001MA1101591100671MD1510031+9999MW1001REMMET011NEW CAVOK ;EQDQ01+000000PRSWM2
0095010230999991999011203504+69050+018550FM-15+0079ENDU V0209999C00001220001CN0099001N1-01801-02001101761ADDMA1101591100691MW1001REMMET011NEW CAVOK ;EQDQ01+999990APOSP Q02+999990APOSLPQ03+000000PRSWM2
0095010230999991999011204504+69050+018550FM-15+0079ENDU V0209999C00001220001CN0099001N1-01901-02001101661ADDMA1101491100591MW1001REMMET011NEW CAVOK ;EQDQ01+999990APOSP Q02+999990APOSLPQ03+000000PRSWM2
0184010230999991999011206004+69050+018550SY-MT+0079ENDU V0202301N000512200019N0750001N1-01951-02111101641ADDAA199000021AJ100359199999999GF101991011001999999071001IA1239KA1120N-01961MA1101491100621MD1710051+9999MW1001REMSYN023 333 21196 47035 91104;MET016NEW CAVOK NOSIG;EQDQ01+000000PRSWM2
0100010230999991999011206504+69050+018550FM-15+0079ENDU V0209999C00001220001CN0099001N1-02001-02101101661ADDMA1101491100591MW1001REMMET016NEW CAVOK NOSIG;EQDQ01+999990APOSP Q02+999990APOSLPQ03+000000PRSWM2
0100010230999991999011207504+69050+018550FM-15+0079ENDU V0209999C00001220001CN0099001N1-02001-02201101661ADDMA1101491100591MW1001REMMET016NEW CAVOK NOSIG;EQDQ01+999990APOSP Q02+999990APOSLPQ03+000000PRSWM2
0108010230999991999011209004+69050+018550SY-MT+0079ENDU V0202101N000512200019N0750001N1-02041-02201101611ADDGF101991011001999999071001MA1101491100591MD1610031+9999MW1001REMMET016NEW CAVOK NOSIG;EQDQ01+000000PRSWM2
0136010230999991999011209504+69050+018550FM-15+0079ENDU V0209999V001012200019N0112651N1-02101-02201101671ADDGA1021+013509999GF102991999999999999999999MA1101491100591MW1001REMMET010NEW NOSIG;EQDQ01+999990APOSP Q02+999990APOSLPQ03+000000PRSWM2
0136010230999991999011210504+69050+018550FM-15+0079ENDU V0209999V001012200019N0112651N1-02101-02201101671ADDGA1021+012009999GF102991999999999999999999MA1101491100591MW1001REMMET010NEW NOSIG;EQDQ01+999990APOSP Q02+999990APOSLPQ03+000000PRSWM2
0151010230999991999011212004+69050+018550SY-MT+0079ENDU V0202001N001012200019N0750001N1-02061-02221101561ADDGA1021+012009999GF199999011081012501001001MA1101391100541MD1710051+9999MW1001REMSYN011 333 91105;MET010NEW NOSIG;EQDQ01+000012SCOTCVQ02+000000PRSWM2
0136010230999991999011212504+69050+018550FM-15+0079ENDU V0209999V001012200019N0112651N1-02101-02201101571ADDGA1021+012009999GF102991999999999999999999MA1101391100491MW1001REMMET010NEW NOSIG;EQDQ01+999990APOSP Q02+999990APOSLPQ03+000000PRSWM2
0095010230999991999011213504+69050+018550FM-15+0079ENDU V0209999V00051220001CN0099001N1-02101-02201101571ADDMA1101391100491MW1001REMMET011NEW CAVOK ;EQDQ01+999990APOSP Q02+999990APOSLPQ03+000000PRSWM2
0103010230999991999011215004+69050+018550SY-MT+0079ENDU V0202201N001012200019N0750001N1-02031-02211101491ADDGF100991001001999999001001MA1101391100471MD1710071+9999MW1001REMMET011NEW CAVOK ;EQDQ01+000000PRSWM2
0095010230999991999011215504+69050+018550FM-15+0079ENDU V0202301N00101220001CN0099001N1-02001-02201101561ADDMA1101391100491MW1001REMMET011NEW CAVOK ;EQDQ01+999990APOSP Q02+999990APOSLPQ03+000000PRSWM2
0095010230999991999011216504+69050+018550FM-15+0079ENDU V0209999V00101220001CN0099001N1-01901-02001101561ADDMA1101391100491MW1001REMMET011NEW CAVOK ;EQDQ01+999990APOSP Q02+999990APOSLPQ03+000000PRSWM2
0166010230999991999011218004+69050+018550SY-MT+0079ENDU V0202101N001012200019N0750001N1-01831-01981101481ADDAA199000091GF100991001001999999001001KA1120M-01811MA1101391100471MD1010001+9999MW1001REMSYN017 333 11181 91105;MET011NEW CAVOK ;EQDQ01+000000PRSWM2Q02  00002PRCP99
0095010230999991999011218504+69050+018550FM-15+0079ENDU V0209999V00151220001CN0099001N1-01801-02001101551ADDMA1101391100491MW1001REMMET011NEW CAVOK ;EQDQ01+999990APOSP Q02+999990APOSLPQ03+000000PRSWM2
0095010230999991999011219504+69050+018550FM-15+0079ENDU V0209999V00101220001CN0099001N1-01801-02001101551ADDMA1101391100491MW1001REMMET011NEW CAVOK ;EQDQ01+999990APOSP Q02+999990APOSLPQ03+000000PRSWM2
0103010230999991999011221004+69050+018550SY-MT+0079ENDU V0202301N001012200019N0750001N1-01751-01901101441ADDGF100991001001999999001001MA1101291100431MD1710041+9999MW1001REMMET011NEW CAVOK ;EQDQ01+000000PRSWM2
0095010230999991999011221504+69050+018550FM-15+0079ENDU V0209999V00151220001CN0099001N1-02001-02101101461ADDMA1101291100391MW1001REMMET011NEW CAVOK ;EQDQ01+999990APOSP Q02+999990APOSLPQ03+000000PRSWM2
0095010230999991999011222504+69050+018550FM-15+0079ENDU V0209999V00151220001CN0099001N1-02001-02101101461ADDMA1101291100391MW1001REMMET011NEW CAVOK ;EQDQ01+999990APOSP Q02+999990APOSLPQ03+000000PRSWM2
0120010230999991999011300004+69050+018550SY-MT+0079ENDU V0202001N001012200019N0750001N1-01991-02121101431ADDGF100991001001999999001001MA1101291100421MD1610011+9999MW1001REMSYN011 333 91107;MET011NEW CAVOK ;EQDQ01+000000PRSWM2
0095010230999991999011300504+69050+018550FM-15+0079ENDU V0209999V00101220001CN0099001N1-01901-02101101461ADDMA1101291100391MW1001REMMET011NEW CAVOK ;EQDQ01+999990APOSP Q02+999990APOSLPQ03+000000PRSWM2
0095010230999991999011301504+69050+018550FM-15+0079ENDU V0209999V00101220001CN0099001N1-01901-02001101461ADDMA1101291100391MW1001REMMET011NEW CAVOK ;EQDQ01+999990APOSP Q02+999990APOSLPQ03+000000PRSWM2
0103010230999991999011303004+69050+018550SY-MT+0079ENDU V0202101N001012200019N0750001N1-01931-02121101381ADDGF100991001001999999001001MA1101291100371MD1710051+9999MW1001REMMET011NEW CAVOK ;EQDQ01+000000PRSWM2
0095010230999991999011303504+69050+018550FM-15+0079ENDU V0209999V00051220001CN0099001N1-01901-02101101361ADDMA1101191100291MW1001REMMET011NEW CAVOK ;EQDQ01+999990APOSP Q02+999990APOSLPQ03+000000PRSWM2
0095010230999991999011304504+69050+018550FM-15+0079ENDU V0209999V00101220001CN0099001N1-01801-02001101351ADDMA1101191100291MW1001REMMET011NEW CAVOK ;EQDQ01+999990APOSP Q02+999990APOSLPQ03+000000PRSWM2
0200010230999991999011306004+69050+018550SY-MT+0079ENDU V0202001N001012200019N0750001N1-01841-02001101231ADDAA199000091AJ100359199999999GF100991001001999999001001IA1239KA1120N-02071MA1101081100221MD1710151+9999MW1001REMSYN023 333 21207 47035 91106;MET016NEW CAVOK NOSIG;EQDQ01+000000PRSWM2Q02  00002PRCP99
0136010230999991999011306504+69050+018550FM-15+0079ENDU V0209999V001012200019N0112651N1-01801-02001101241ADDGA1021+012009999GF102991999999999999999999MA1101081100181MW1001REMMET010NEW NOSIG;EQDQ01+999990APOSP Q02+999990APOSLPQ03+000000PRSWM2
0136010230999991999011307504+69050+018550FM-15+0079ENDU V0209999V001012200019N0112651N1-01801-01901101181ADDGA1021+010509999GF102991999999999999999999MA1101021100121MW1001REMMET010NEW NOSIG;EQDQ01+999990APOSP Q02+999990APOSLPQ03+000000PRSWM2
0134010230999991999011309004+69050+018550SY-MT+0079ENDU V0203301N000512200019N0750001N1-01721-01881101131ADDGA1021+010509999GF199999011051012501001001MA1101021100121MD1710101+9999MW1001REMMET010NEW NOSIG;EQDQ01+000012SCOTCVQ02+000000PRSWM2
0136010230999991999011309504+69050+018550FM-15+0079ENDU V0209999V000512200019N0112651N1-01401-01601101161ADDGA1021+010509999GF102991999999999999999999MA1101021100121MW1001REMMET010NEW NOSIG;EQDQ01+999990APOSP Q02+999990APOSLPQ03+000000PRSWM2
0136010230999991999011310504+69050+018550FM-15+0079ENDU V0209999V001512200019N0112651N1-01201-01501101051ADDGA1021+010509999GF102991999999999999999999MA1100911100021MW1001REMMET010NEW NOSIG;EQDQ01+999990APOSP Q02+999990APOSLPQ03+000000PRSWM2
0151010230999991999011312004+69050+018550SY-MT+0079ENDU V0202401N000512200019N0750001N1-01731-01961101071ADDGA1021+012009999GF199999011051012501001001MA1101021100061MD1510061+9999MW1001REMSYN011 333 91108;MET010NEW NOSIG;EQDQ01+000012SCOTCVQ02+000000PRSWM2
0136010230999991999011312504+69050+018550FM-15+0079ENDU V0209999V000512200019N0112651N1-01901-02101101081ADDGA1021+012009999GF102991999999999999999999MA1100911100021MW1001REMMET010NEW NOSIG;EQDQ01+999990APOSP Q02+999990APOSLPQ03+000000PRSWM2
0131010230999991999011313504+69050+018550FM-15+0079ENDU V0201201N002112200019N0112651N1-01501-01901101071ADDGA1021+012009999GF102991999999999999999999MA1100911100021MW1001REMMET005NEW ;EQDQ01+999990APOSP Q02+999990APOSLPQ03+000000PRSWM2
0129010230999991999011315004+69050+018550SY-MT+0079ENDU V0202801N001012200019N0750001N1-01841-02081100931ADDGA1021+012009999GF199999011051012501001001MA1100811099921MD1710141+9999MW1001REMMET005NEW ;EQDQ01+000012SCOTCVQ02+000000PRSWM2
0095010230999991999011315504+69050+018550FM-15+0079ENDU V0209999V00101220001CN0099001N1-01901-02101100981ADDMA1100811099921MW1001REMMET011NEW CAVOK ;EQDQ01+999990APOSP Q02+999990APOSLPQ03+000000PRSWM2
0095010230999991999011316504+69050+018550FM-15+0079ENDU V0209999C00001220001CN0099001N1-02001-02201100991ADDMA1100811099921MW1001REMMET011NEW CAVOK ;EQDQ01+999990APOSP Q02+999990APOSLPQ03+000000PRSWM2
0166010230999991999011318004+69050+018550SY-MT+0079ENDU V0202001N001512200019N0750001N1-02061-02241100861ADDAA199000091GF100991001001999999001001KA1120M-01161MA1100711099851MD1710071+9999MW1001REMSYN017 333 11116 91111;MET011NEW CAVOK ;EQDQ01+000000PRSWM2Q02  00002PRCP99
0095010230999991999011318504+69050+018550FM-15+0079ENDU V0209999V00101220001CN0099001N1-02001-02201100881ADDMA1100711099821MW1001REMMET011NEW CAVOK ;EQDQ01+999990APOSP Q02+999990APOSLPQ03+000000PRSWM2
0095010230999991999011319504+69050+018550FM-15+0079ENDU V0209999V00051220001CN0099001N1-02201-02401100891ADDMA1100711099821MW1001REMMET011NEW CAVOK ;EQDQ01+999990APOSP Q02+999990APOSLPQ03+000000PRSWM2
0103010230999991999011321004+69050+018550SY-MT+0079ENDU V0209999C000012200019N0750001N1-02261-02481100801ADDGF100991001001999999001001MA1100711099791MD1710061+9999MW1001REMMET011NEW CAVOK ;EQDQ01+000000PRSWM2
0095010230999991999011321504+69050+018550FM-15+0079ENDU V0209999V00101220001CN0099001N1-02201-02401100791ADDMA1100611099721MW1001REMMET011NEW CAVOK ;EQDQ01+999990APOSP Q02+999990APOSLPQ03+000000PRSWM2
0095010230999991999011322504+69050+018550FM-15+0079ENDU V0209999V00101220001CN0099001N1-02301-02501100801ADDMA1100611099721MW1001REMMET011NEW CAVOK ;EQDQ01+999990APOSP Q02+999990APOSLPQ03+000000PRSWM2
0101010230999991999011400004+69050+018550SY-MT+0079ENDU V0202101N001512200019N0750001N1-02261-02501100641ADDGF100991001001999999001001MA1100511099631MD1710161+9999MW1001REMSYN011 333 91105;MET011NEW CAVOK ;
0044010230999991999011400504+69050+018550FM-15+0079ENDU V0209999V00101220001CN0099001N1-02301-02501100701ADDMA1100511099621MW1001REMMET011NEW CAVOK ;
0044010230999991999011401504+69050+018550FM-15+0079ENDU V0209999V00101220001CN0099001N1-02301-02501100591ADDMA1100411099521MW1001REMMET011NEW CAVOK ;
0084010230999991999011403004+69050+018550SY-MT+0079ENDU V0202201N001012200019N0750001N1-02261-02501100461ADDGF100991001001999999001001MA1100311099451MD1710181+9999MW1001REMMET011NEW CAVOK ;
0044010230999991999011403504+69050+018550FM-15+0079ENDU V0202001N00211220001CN0099001N1-02301-02501100491ADDMA1100311099421MW1001REMMET011NEW CAVOK ;
0044010230999991999011404504+69050+018550FM-15+0079ENDU V0209999V00151220001CN0099001N1-02301-02501100381ADDMA1100201099311MW1001REMMET011NEW CAVOK ;
0184010230999991999011406004+69050+018550SY-MT+0079ENDU V0202301N001012200019N0750001N1-02191-02441100221ADDAA199000091AJ100259199999999GF100991001001999999001001IA1239KA1120N-02411MA1100101099211MD1710241+9999MW1001REMSYN023 333 21241 47025 91107;MET016NEW CAVOK NOSIG;EQDQ01  00002PRCP99
0049010230999991999011406504+69050+018550FM-15+0079ENDU V0209999V00101220001CN0099001N1-02201-02401100181ADDMA1100001099111MW1001REMMET016NEW CAVOK NOSIG;
0049010230999991999011407504+69050+018550FM-15+0079ENDU V0209999V00151220001CN0099001N1-02201-02501100071ADDMA1099901099011MW1001REMMET016NEW CAVOK NOSIG;
0089010230999991999011409004+69050+018550SY-MT+0079ENDU V0202001N001012200019N0750001N1-02121-02351100031ADDGF104991011001022501071011MA1099901099021MD1710191+9999MW1001REMMET016NEW CAVOK NOSIG;
0049010230999991999011409504+69050+018550FM-15+0079ENDU V0209999V00151220001CN0099001N1-02201-02401099971ADDMA1099801098911MW1001REMMET016NEW CAVOK NOSIG;
0049010230999991999011410504+69050+018550FM-15+0079ENDU V0209999V00101220001CN0099001N1-02101-02301099971ADDMA1099801098911MW1001REMMET016NEW CAVOK NOSIG;
0148010230999991999011412004+69050+018550SY-MT+0079ENDU V0202201N001512200019N0750001N1-02141-02391099791ADDGF102991011001022501041091MA1099701098791MD1710231+9999MW1001REMSYN053 22203 11214 21239 39879 49979 57023 81049 333 91107;MET016NEW CAVOK NOSIG;
0049010230999991999011412504+69050+018550FM-15+0079ENDU V0209999V00051220001CN0099001N1-02301-02601099771ADDMA1099591098701MW1001REMMET016NEW CAVOK NOSIG;
0044010230999991999011413504+69050+018550FM-15+0079ENDU V0209999V00101220001CN0099001N1-02301-02501099671ADDMA1099491098611MW1001REMMET011NEW CAVOK ;
0084010230999991999011415004+69050+018550SY-MT+0079ENDU V0202601N001012200019N0750001N1-02231-02461099581ADDGF104991001001999999001091MA1099491098581MD1710211+9999MW1001REMMET011NEW CAVOK ;
0044010230999991999011415504+69050+018550FM-15+0079ENDU V0209999V00151220001CN0099001N1-02301-02501099571ADDMA1099391098511MW1001REMMET011NEW CAVOK ;
0044010230999991999011416504+69050+018550FM-15+0079ENDU V0209999V00151220001CN0099001N1-02201-02401099471ADDMA1099291098411MW1001REMMET011NEW CAVOK ;
0150010230999991999011418004+69050+018550SY-MT+0079ENDU V0202201N001512200019N0750001N1-02301-02531099351ADDAA199000091GF100991001001999999001001KA1120M-01991MA1099191098351MD1710231+9999MW1001REMSYN017 333 11199 91106;MET011NEW CAVOK ;EQDQ01  00002PRCP99
0044010230999991999011418504+69050+018550FM-15+0079ENDU V0209999V00101220001CN0099001N1-02201-02401099371ADDMA1099191098311MW1001REMMET011NEW CAVOK ;
0044010230999991999011419504+69050+018550FM-15+0079ENDU V0209999V00101220001CN0099001N1-02201-02401099271ADDMA1099091098211MW1001REMMET011NEW CAVOK ;
0084010230999991999011421004+69050+018550SY-MT+0079ENDU V0202001N001512200019N0750001N1-02181-02411099201ADDGF100991001001999999001001MA1099091098201MD1710151+9999MW1001REMMET011NEW CAVOK ;
0044010230999991999011421504+69050+018550FM-15+0079ENDU V0209999V00051220001CN0099001N1-02201-02401099151ADDMA1098981098101MW1001REMMET011NEW CAVOK ;
0044010230999991999011422504+69050+018550FM-15+0079ENDU V0209999V00101220001CN0099001N1-02201-02401099151ADDMA1098981098101MW1001REMMET011NEW CAVOK ;
0120010230999991999011500004+69050+018550SY-MT+0079ENDU V0202101N001012200019N0750001N1-02341-02581099091ADDGF100991001001999999001001MA1098981098091MD1710111+9999MW1001REMSYN011 333 91106;MET011NEW CAVOK ;EQDQ01+000000PRSWM2
0095010230999991999011500504+69050+018550FM-15+0079ENDU V0209999V00101220001CN0099001N1-02101-02401099151ADDMA1098981098101MW1001REMMET011NEW CAVOK ;EQDQ01+999990APOSP Q02+999990APOSLPQ03+000000PRSWM2
0095010230999991999011501504+69050+018550FM-15+0079ENDU V0209999V00051220001CN0099001N1-02201-02401099151ADDMA1098981098101MW1001REMMET011NEW CAVOK ;EQDQ01+999990APOSP Q02+999990APOSLPQ03+000000PRSWM2
0103010230999991999011503004+69050+018550SY-MT+0079ENDU V0201601N001012200019N0750001N1-02051-02361099091ADDGF100991001001999999001001MA1098981098091MD1410001+9999MW1001REMMET011NEW CAVOK ;EQDQ01+000000PRSWM2
0095010230999991999011503504+69050+018550FM-15+0079ENDU V0209999V00101220001CN0099001N1-01901-02301099141ADDMA1098981098101MW1001REMMET011NEW CAVOK ;EQDQ01+999990APOSP Q02+999990APOSLPQ03+000000PRSWM2
0095010230999991999011504504+69050+018550FM-15+0079ENDU V0209999V00101220001CN0099001N1-02101-02501099151ADDMA1098981098101MW1001REMMET011NEW CAVOK ;EQDQ01+999990APOSP Q02+999990APOSLPQ03+000000PRSWM2
0200010230999991999011506004+69050+018550SY-MT+0079ENDU V0200701N001012200019N0750001N1-02041-02441099141ADDAA199000091AJ100259199999999GF100991001001999999001001IA1239KA1120N-02371MA1098981098141MD1210051+9999MW1001REMSYN023 333 21237 47025 91111;MET016NEW CAVOK NOSIG;EQDQ01+000000PRSWM2Q02  00002PRCP99
0100010230999991999011506204+69050+018550FM-15+0079ENDU V0209999C00001220001CN0099001N1-02201-02601099151ADDMA1098981098101MW1001REMMET016NEW CAVOK NOSIG;EQDQ01+999990APOSP Q02+999990APOSLPQ03+000000PRSWM2
0100010230999991999011507204+69050+018550FM-15+0079ENDU V0209999V00051220001CN0099001N1-02301-02601099271ADDMA1099091098211MW1001REMMET016NEW CAVOK NOSIG;EQDQ01+999990APOSP Q02+999990APOSLPQ03+000000PRSWM2
0108010230999991999011509004+69050+018550SY-MT+0079ENDU V0201701N000512200019N0750001N1-02621-02911099251ADDGF101991001001999999001011MA1099091098251MD1210111+9999MW1001REMMET016NEW CAVOK NOSIG;EQDQ01+000000PRSWM2
0100010230999991999011509504+69050+018550FM-15+0079ENDU V0209999C00001220001CN0099001N1-02601-02801099281ADDMA1099091098211MW1001REMMET016NEW CAVOK NOSIG;EQDQ01+999990APOSP Q02+999990APOSLPQ03+000000PRSWM2
0100010230999991999011511204+69050+018550FM-15+0079ENDU V0209999V00051220001CN0099001N1-02701-02901099391ADDMA1099191098311MW1001REMMET016NEW CAVOK NOSIG;EQDQ01+999990APOSP Q02+999990APOSLPQ03+000000PRSWM2
0125010230999991999011512004+69050+018550SY-MT+0079ENDU V0209999C000012200019N0750001N1-02631-02911099311ADDGF100991001001999999001001MA1099191098311MD1210061+9999MW1001REMSYN011 333 91105;MET016NEW CAVOK NOSIG;EQDQ01+000000PRSWM2
0100010230999991999011513204+69050+018550FM-15+0079ENDU V0209999C00001220001CN0099001N1-02701-02901099391ADDMA1099191098311MW1001REMMET016NEW CAVOK NOSIG;EQDQ01+999990APOSP Q02+999990APOSLPQ03+000000PRSWM2
0100010230999991999011513504+69050+018550FM-15+0079ENDU V0209999C00001220001CN0099001N1-02601-02901099381ADDMA1099191098311MW1001REMMET016NEW CAVOK NOSIG;EQDQ01+999990APOSP Q02+999990APOSLPQ03+000000PRSWM2
0103010230999991999011515004+69050+018550SY-MT+0079ENDU V0209999C000012200019N0750001N1-02761-03031099341ADDGF100991001001999999001001MA1099191098341MD1210031+9999MW1001REMMET011NEW CAVOK ;EQDQ01+000000PRSWM2
0095010230999991999011516204+69050+018550FM-15+0079ENDU V0209999C00001220001CN0099001N1-02701-02901099391ADDMA1099191098311MW1001REMMET011NEW CAVOK ;EQDQ01+999990APOSP Q02+999990APOSLPQ03+000000PRSWM2
0095010230999991999011516504+69050+018550FM-15+0079ENDU V0209999C00001220001CN0099001N1-02801-03001099391ADDMA1099191098311MW1001REMMET011NEW CAVOK ;EQDQ01+999990APOSP Q02+999990APOSLPQ03+000000PRSWM2
0166010230999991999011518004+69050+018550SY-MT+0079ENDU V0202201N000512200019N0750001N1-02681-02941099341ADDAA199000091GF101991011001022501071001KA1120M-02021MA1099191098341MD1410001+9999MW1001REMSYN017 333 11202 91104;MET011NEW CAVOK ;EQDQ01+000000PRSWM2Q02  00002PRCP99
0095010230999991999011518504+69050+018550FM-15+0079ENDU V0209999C00001220001CN0099001N1-02701-03001099391ADDMA1099191098311MW1001REMMET011NEW CAVOK ;EQDQ01+999990APOSP Q02+999990APOSLPQ03+000000PRSWM2
0095010230999991999011519504+69050+018550FM-15+0079ENDU V0209999V00051220001CN0099001N1-02701-03001099391ADDMA1099191098311MW1001REMMET011NEW CAVOK ;EQDQ01+999990APOSP Q02+999990APOSLPQ03+000000PRSWM2
0103010230999991999011521004+69050+018550SY-MT+0079ENDU V0202301N000512200019N0750001N1-02631-02891099311ADDGF100991001001999999001001MA1099191098311MD1810031+9999MW1001REMMET011NEW CAVOK ;EQDQ01+000000PRSWM2
0095010230999991999011521504+69050+018550FM-15+0079ENDU V0209999V00051220001CN0099001N1-02501-02801099381ADDMA1099191098311MW1001REMMET011NEW CAVOK ;EQDQ01+999990APOSP Q02+999990APOSLPQ03+000000PRSWM2
0095010230999991999011522504+69050+018550FM-15+0079ENDU V0209999V00051220001CN0099001N1-02501-02801099281ADDMA1099091098211MW1001REMMET011NEW CAVOK ;EQDQ01+999990APOSP Q02+999990APOSLPQ03+000000PRSWM2
0120010230999991999011600004+69050+018550SY-MT+0079ENDU V0202201N001012200019N0750001N1-02471-02721099161ADDGF100991001001999999001001MA1098981098161MD1710151+9999MW1001REMSYN011 333 91104;MET011NEW CAVOK ;EQDQ01+000000PRSWM2
0095010230999991999011600504+69050+018550FM-15+0079ENDU V0209999V00051220001CN0099001N1-02401-02701099101ADDMA1098921098041MW1001REMMET011NEW CAVOK ;EQDQ01+999990APOSP Q02+999990APOSLPQ03+000000PRSWM2
0095010230999991999011601504+69050+018550FM-15+0079ENDU V0209999V00151220001CN0099001N1-02401-02601099101ADDMA1098921098041MW1001REMMET011NEW CAVOK ;EQDQ01+999990APOSP Q02+999990APOSLPQ03+000000PRSWM2
0103010230999991999011603004+69050+018550SY-MT+0079ENDU V0201701N002112200019N0750001N1-02431-02681098861ADDGF100991001001999999001001MA1098711097861MD1710301+9999MW1001REMMET011NEW CAVOK ;EQDQ01+000000PRSWM2
0095010230999991999011603504+69050+018550FM-15+0079ENDU V0209999V00101220001CN0099001N1-02101-02401098881ADDMA1098711097831MW1001REMMET011NEW CAVOK ;EQDQ01+999990APOSP Q02+999990APOSLPQ03+000000PRSWM2
0095010230999991999011604504+69050+018550FM-15+0079ENDU V0209999V00101220001CN0099001N1-01401-01701098751ADDMA1098611097731MW1001REMMET011NEW CAVOK ;EQDQ01+999990APOSP Q02+999990APOSLPQ03+000000PRSWM2
0195010230999991999011606004+69050+018550SY-MT+0079ENDU V0203501N001019999999N0750001N1-00851-01241098631ADDAA199000091AJ100249199999999GF106991001001999999001081IA1239KA1120N-02731MA1098511097651MD1710211+9999MW1001REMSYN023 333 21273 47024 91111;MET011NEW CAVOK ;EQDQ01+000000PRSWM2Q02  00002PRCP99
0179010230999991999011607204+69050+018550FM-15+0079ENDU V0200801N005110600019N0112651N1-00601-01101098521ADDGA1021+015009999GA2021+027009999GA3071+060009999GF107991999999999999999999MA1098411097531MW1001REMMET021NEW TEMPO 12015G25KT;EQDQ01+999990APOSP Q02+999990APOSLPQ03+000000PRSWM2
0187010230999991999011607504+69050+018550FM-15+0079ENDU V0201101N004110600019N0112651N1-00501-01101098411ADDGA1021+015009999GA2021+024009999GA3071+060009999GF107991999999999999999999MA1098311097431MW1001OC100981REMMET021NEW TEMPO 12020G30KT;EQDQ01+999990APOSP Q02+999990APOSLPQ03+000000PRSWM2
0109010230999991999011609004+69050+018550SY-MT+0079ENDU V0201001N009310210019N0180001N1-00451-01081098361ADDGA1021+012009999GA2071+021009999GF107991011051001501071081MA1098311097391MD1710261+9999REMMET010NEW NOSIG;
0160010230999991999011609504+69050+018550FM-15+0079ENDU V0201201N010310210019N0112651N1-00301-01101098301ADDGA1021+012009999GA2071+021009999GF107991999999999999999999MA1098211097331MW1001OC101591REMMET010NEW NOSIG;EQDQ01+999990APOSP Q02+999990APOSLPQ03+000000PRSWM2
0161010230999991999011610504+69050+018550FM-15+0079ENDU V0202601N002610240019N0112651N1-00201-01001098201ADDGA1021+012009999GA2071+024009999GF107991999999999999999999MA1098101097231MW1001REMMET019NEW TEMPO 12020G30;EQDQ01+999990APOSP Q02+999990APOSLPQ03+000000PRSWM2
0154010230999991999011612004+69050+018550SY-MT+0079ENDU V0201401N006210240019N0600001N1-00241-01081098121ADDGA1021+013509999GA2071+024009999GF107991021051012501071081MA1098001097161MD1710231+9999MW1001OC101291REMSYN011 333 91132;MET005NEW ;EQDQ01+000000PRSWM2
0155010230999991999011612504+69050+018550FM-15+0079ENDU V0201101N002610210019N0112651N1+00001-00901098091ADDGA1021+012009999GA2071+021009999GF107991999999999999999999MA1098001097131MW1001OC101291REMMET005NEW ;EQDQ01+999990APOSP Q02+999990APOSLPQ03+000000PRSWM2
0155010230999991999011613504+69050+018550FM-15+0079ENDU V0201101N010310150019N0112651N1-00101-01001098191ADDGA1021+010509999GA2071+015009999GF107991999999999999999999MA1098101097231MW1001OC101541REMMET005NEW ;EQDQ01+999990APOSP Q02+999990APOSLPQ03+000000PRSWM2
0137010230999991999011615004+69050+018550SY-MT+0079ENDU V0201201N007710150019N0600001N1-00071-01011098161ADDGA1021+012009999GA2071+015009999GF107991051051012501041081MA1098101097201MD1310041+9999MW1001OC101441REMMET005NEW ;EQDQ01+000000PRSWM2
0147010230999991999011615504+69050+018550FM-15+0079ENDU V0209999V001512200019N0112651N1-00101-01001098191ADDGA1021+012009999GA2021+018009999GF104991999999999999999999MA1098101097231MW1001REMMET005NEW ;EQDQ01+999990APOSP Q02+999990APOSLPQ03+000000PRSWM2
0131010230999991999011616504+69050+018550FM-16+0079ENDU V0200801N002610300019N0112651N1+99999+99999999999ADDGA1021+015009999GA2071+030009999GF107991999999999999999999MA1098001097131MW1001REMMET005NEW ;EQDQ01+999990APOSP Q02+000000PRSWM2
0232010230999991999011618004+69050+018550SY-MT+0079ENDU V0200701N00461030001CN0650001N1+00021-00921098071ADDAA199000091GF107991021051012501071081KA1120M+00031MA1097981097111MD1710091+9999MW1001REMSYN017 333 10003 91103;MET061NEW 1750Z O9015G25KT 070V130 9999 FEW050 BKN100 00/M09 Q0980;EQDQ01+999990APOA  Q02+000000PRSWM2Q03  00002PRCP99
0171010230999991999011618504+69050+018550FM-15+0079ENDU V0201101N004610300019N0112651N1+00001-00601098091ADDGA1021+009009999GA2071+030009999GF107991999999999999999999MA1098001097131MW1161OC100981REMMET005NEW ;EQDQ01+999990APOSP Q02+999990APOSLPQ03+000003PRSWM1Q04    003PRSWM1
0163010230999991999011705204+69050+018550FM-15+0079ENDU V0209999V000510135019N0090001N1-00201-00301097891ADDGA1021+004509999GA2071+013509999GF107991999999999999999999MA1097801096931MW1851REMMET005NEW ;EQDQ01+999990APOSP Q02+999990APOSLPQ03+000003PRSWM1Q04    003PRSWM1
0221010230999991999011706004+69050+018550SY-MT+0079ENDU V0200101N000510120019N0050001N1-00131-00211097881ADDAA199000591AJ100189199999999AY171061AY221061GA1021+004509999GA2071+012009999GF108991061051004501071999IA1239KA1120N-00301MA1097801096921MD1310041+9999MW1711REMSYN023 333 21030 47018 91109;MET005NEW ;EQDQ01    003PRSWM1
0179010230999991999011706504+69050+018550FM-15+0079ENDU V0209999V001510120019N0070001N1-00101-00201097991ADDGA1021+001209999GA2021+004509999GA3071+012009999GF107991999999999999999999MA1097901097031MW1711REMMET005NEW ;EQDQ01+999990APOSP Q02+999990APOSLPQ03+000003PRSWM1Q04    003PRSWM1
0163010230999991999011707504+69050+018550FM-15+0079ENDU V0209999V001010210019N0112651N1-00201-00201098101ADDGA1021+010509999GA2021+013509999GA3071+021009999GF107991999999999999999999MA1098001097131MW1001REMMET005NEW ;EQDQ01+999990APOSP Q02+999990APOSLPQ03+000000PRSWM2
0167010230999991999011709004+69050+018550SY-MT+0079ENDU V0202901N000510600019N0600001N1-00391-00431098111ADDAY171031AY221031GA1021+000309999GA2021+013509999GA3071+060009999GF107991031051000251071081MA1098001097151MD1210231+9999MW1401MW2411REMMET005NEW ;EQDQ01    003PRSWM1
0185010230999991999011709504+69050+018550FM-15+0079ENDU V0209999V000510150019N0112651N1-00401-00401098211ADDGA1021+000309999GA2021+009009999GA3071+015009999GF107991999999999999999999MA1098101097231MW1411MW2711REMMET005NEW ;EQDQ01+999990APOSP Q02+999990APOSLPQ03+000003PRSWM1Q04    003PRSWM1
0163010230999991999011710504+69050+018550FM-15+0079ENDU V0209999V000510150019N0080001N1-00301-00301098301ADDGA1021+001209999GA2071+015009999GF107991999999999999999999MA1098211097331MW1711REMMET005NEW ;EQDQ01+999990APOSP Q02+999990APOSLPQ03+000003PRSWM1Q04    003PRSWM1
0162010230999991999011712004+69050+018550SY-MT+0079ENDU V0209999C000010150019N0300001N1-00261-00301098301ADDAY171061AY221061GA1021+001509999GA2071+015009999GF107991061051001501071999MA1098211097341MD1210191+9999MW1711REMSYN011 333 91105;MET005NEW ;EQDQ01    003PRSWM1
0163010230999991999011712504+69050+018550FM-15+0079ENDU V0209999V001010135019N0070001N1-00201-00301098401ADDGA1021+001509999GA2071+013509999GF107991999999999999999999MA1098311097431MW1851REMMET005NEW ;EQDQ01+999990APOSP Q02+999990APOSLPQ03+000003PRSWM1Q04    003PRSWM1
0179010230999991999011714204+69050+018550FM-15+0079ENDU V0209999V001010120019N0050001N1-00101-00201098501ADDGA1021+001509999GA2021+006009999GA3071+012009999GF107991999999999999999999MA1098411097531MW1851REMMET005NEW ;EQDQ01+999990APOSP Q02+999990APOSLPQ03+000003PRSWM1Q04    003PRSWM1
0145010230999991999011715004+69050+018550SY-MT+0079ENDU V0200701N000510075019N0060001N1-00131-00171098501ADDAY181031AY221031GA1021+001509999GA2071+007509999GF108991081081001501999999MA1098411097531MD1210191+9999MW1851REMMET005NEW ;EQDQ01    003PRSWM1
0163010230999991999011715504+69050+018550FM-15+0079ENDU V0200301N001010075019N0070001N1-00101-00201098501ADDGA1021+001509999GA2071+007509999GF107991999999999999999999MA1098411097531MW1851REMMET005NEW ;EQDQ01+999990APOSP Q02+999990APOSLPQ03+000003PRSWM1Q04    003PRSWM1
0179010230999991999011716504+69050+018550FM-15+0079ENDU V0209999V001010135019N0090001N1-00101-00101098601ADDGA1021+001509999GA2021+007509999GA3071+013509999GF107991999999999999999999MA1098511097631MW1851REMMET005NEW ;EQDQ01+999990APOSP Q02+999990APOSLPQ03+000003PRSWM1Q04    003PRSWM1
0208010230999991999011718004+69050+018550SY-MT+0079ENDU V0200201N002110135019N0280001N1-00101-00141098621ADDAA199004191AY181061AY221061GA1021+007509999GA2071+013509999GF107991061081008001071999KA1120M-00091MA1098511097651MD1210121+9999MW1261REMSYN017 333 11009 91107;MET005NEW ;EQDQ01+000000PRSWM2Q02    003PRSWM1
0147010230999991999011718504+69050+018550FM-15+0079ENDU V0202101N003610135019N0112651N1+00001+00001098701ADDGA1021+010509999GA2071+013509999GF107991999999999999999999MA1098611097731MW1001REMMET005NEW ;EQDQ01+999990APOSP Q02+999990APOSLPQ03+000000PRSWM2
0147010230999991999011719504+69050+018550FM-15+0079ENDU V0200501N002610150019N0112651N1+00101+00101098791ADDGA1021+010509999GA2071+015009999GF107991999999999999999999MA1098711097831MW1001REMMET005NEW ;EQDQ01+999990APOSP Q02+999990APOSLPQ03+000000PRSWM2
0137010230999991999011721004+69050+018550SY-MT+0079ENDU V0202301N004110150019N0600001N1+00141-00221098761ADDGA1021+010509999GA2071+015009999GF107991051081012501071999MA1098711097801MD1210151+9999MW1001OC100931REMMET005NEW ;EQDQ01+000000PRSWM2
0147010230999991999011721504+69050+018550FM-15+0079ENDU V0202101N004610150019N0112651N1+00201-00201098791ADDGA1021+010509999GA2071+015009999GF107991999999999999999999MA1098711097831MW1001REMMET005NEW ;EQDQ01+999990APOSP Q02+999990APOSLPQ03+000000PRSWM2
0163010230999991999011722504+69050+018550FM-15+0079ENDU V0200401N002610300019N0112651N1+00101-00201098901ADDGA1021+010509999GA2021+015009999GA3071+030009999GF107991999999999999999999MA1098821097941MW1001REMMET005NEW ;EQDQ01+999990APOSP Q02+999990APOSLPQ03+000000PRSWM2
0143010230999991999011800004+69050+018550SY-MT+0079ENDU V0201801N001010150019N0700001N1-00111-00301098901ADDGA1021+010509999GA2071+015009999GA3071+030009999GF107991041081012501071999MA1098821097931MD1210131+9999MW1001REMSYN011 333 91118;MET005NEW ;
0096010230999991999011800504+69050+018550FM-15+0079ENDU V0209999C000010150019N0112651N1-00101-00201098911ADDGA1021+010509999GA2071+015009999GF107991999999999999999999MA1098821097941MW1001REMMET005NEW ;
0096010230999991999011801504+69050+018550FM-15+0079ENDU V0209999V001012200019N0112651N1-00201-00301098911ADDGA1021+012009999GA2021+018009999GF104991999999999999999999MA1098821097941MW1001REMMET005NEW ;
0058010230999991999011803004+69050+018550FM-12+0079ENDU V0202201N001012200019N0700001N1-00331-00411098931ADDGF104991021081012501071001MA1098841097961MD1210031+9999
0112010230999991999011803504+69050+018550FM-15+0079ENDU V0209999V000510300019N0112651N1-00401-00501098921ADDGA1021+012009999GA2021+021009999GA3071+030009999GF107991999999999999999999MA1098821097941MW1001REMMET005NEW ;
0096010230999991999011804504+69050+018550FM-15+0079ENDU V0209999V000512200019N0112651N1-00601-00701098931ADDGA1021+012009999GA2021+021009999GF104991999999999999999999MA1098821097941MW1001REMMET005NEW ;
0191010230999991999011806004+69050+018550SY-MT+0079ENDU V0201901N001012200019N0750001N1-00721-00761098931ADDAA199000021AJ100239199999999GA1021+012009999GA2021+021009999GF103991011081012501071001IA1239KA1120N-00721MA1098821097961MD1410001+9999MW1001REMSYN023 333 21072 47023 91105;MET010NEW NOSIG;
0049010230999991999011807204+69050+018550FM-15+0079ENDU V0209999V00051220001CN0099001N1-00801-00901099041ADDMA1098921098041MW1001REMMET016NEW CAVOK NOSIG;
0049010230999991999011808204+69050+018550FM-15+0079ENDU V0209999C00001220001CN0099001N1-00901-00901099041ADDMA1098921098041MW1001REMMET016NEW CAVOK NOSIG;
0089010230999991999011809004+69050+018550SY-MT+0079ENDU V0209999C000012200019N0750001N1-01001-01041099031ADDGF102991011001999999071011MA1098921098051MD1210091+9999MW1001REMMET016NEW CAVOK NOSIG;
0049010230999991999011809504+69050+018550FM-15+0079ENDU V0209999V00051220001CN0099001N1-01001-01001099051ADDMA1098921098041MW1001REMMET016NEW CAVOK NOSIG;
0049010230999991999011810504+69050+018550FM-15+0079ENDU V0209999V00051220001CN0099001N1-01101-01101099051ADDMA1098921098041MW1001REMMET016NEW CAVOK NOSIG;
0106010230999991999011812004+69050+018550SY-MT+0079ENDU V0202401N001512200019N0750001N1-01131-01181099011ADDGF102991011001999999071081MA1098921098031MD1810021+9999MW1001REMSYN011 333 91105;MET016NEW CAVOK NOSIG;
0049010230999991999011812504+69050+018550FM-15+0079ENDU V0209999V00051220001CN0099001N1-01201-01201099051ADDMA1098921098041MW1001REMMET016NEW CAVOK NOSIG;
0044010230999991999011813504+69050+018550FM-15+0079ENDU V0209999C00001220001CN0099001N1-01201-01201099051ADDMA1098921098041MW1001REMMET011NEW CAVOK ;
0110010230999991999011815004+69050+018550SY-MT+0079ENDU V0202701N000512200019N0750001N1-00931-00971099051ADDGA1021+009009999GA2021+024009999GF103991021001022501071081MA1098981098071MD1310041+9999MW1001REMMET005NEW ;
0112010230999991999011816204+69050+018550FM-15+0079ENDU V0209999V000510240019N0112651N1-00901-01001099101ADDGA1021+003009999GA2021+009009999GA3071+024009999GF107991999999999999999999MA1098981098101MW1001REMMET005NEW ;
0099010230999991999011816504+69050+018550FM-15+0079ENDU V0209999V00151000151CN0020001N1-00601-00801099091ADDGA1091+000159999GF109991999999999999999999MA1098981098101MW1861REMMET005NEW ;EQDQ01    003PRSWM1
0192010230999991999011818004+69050+018550SY-MT+0079ENDU V0202801N001510105019N0070001N1-00651-00731099091ADDAA199000591AY181061AY211061GA1021+000909999GA2071+010509999GF199999051081000751071081KA1120M-00561MA1098981098111MD1310041+9999MW1851REMSYN017 333 11056 91108;MET005NEW ;EQDQ01    003PRSWM1
0096010230999991999011818504+69050+018550FM-15+0079ENDU V0209999V000512200019N0112651N1-00601-00701099091ADDGA1021+004509999GA2021+015009999GF104991999999999999999999MA1098981098101MW1001REMMET005NEW ;
0096010230999991999011819504+69050+018550FM-15+0079ENDU V0209999V000512200019N0112651N1-00701-00801099211ADDGA1021+003009999GA2021+018009999GF104991999999999999999999MA1099091098211MW1001REMMET005NEW ;
0145010230999991999011821004+69050+018550SY-MT+0079ENDU V0202801N001510135019N0300001N1-00691-00741099211ADDAY181031AY221031GA1021+006009999GA2071+013509999GF108991061081008001071999MA1099091098231MD1210121+9999MW1851REMMET005NEW ;EQDQ01    003PRSWM1
0096010230999991999011821504+69050+018550FM-15+0079ENDU V0209999V001512200019N0112651N1-00701-00701099211ADDGA1021+006009999GA2021+015009999GF104991999999999999999999MA1099091098211MW1001REMMET005NEW ;
0162010230999991999011900004+69050+018550SY-MT+0079ENDU V0202601N001512200019N0750001N1-00501-00541099301ADDAY181061AY221061GA1021+013509999GF102991021081012501061001MA1099191098321MD1210091+9999MW1011REMSYN011 333 91108;MET005NEW ;EQDQ01+000000PRSWM2Q02    003PRSWM1
0131010230999991999011900504+69050+018550FM-15+0079ENDU V0209999V001012200019N0112651N1-00201-00301099291ADDGA1021+013509999GF102991999999999999999999MA1099191098311MW1001REMMET005NEW ;EQDQ01+999990APOSP Q02+999990APOSLPQ03+000000PRSWM2
0131010230999991999011901504+69050+018550FM-15+0079ENDU V0202001N003612200019N0112651N1+00001-00201099281ADDGA1021+015009999GF102991999999999999999999MA1099191098311MW1001REMMET005NEW ;EQDQ01+999990APOSP Q02+999990APOSLPQ03+000000PRSWM2
0113010230999991999011903004+69050+018550SY-MT+0079ENDU V0202101N005112200019N0750001N1+00161-00191099321ADDGA1021+015009999GF103991021011012501001081MA1099191098351MD1210031+9999MW1001REMMET005NEW ;EQDQ01+000000PRSWM2
0131010230999991999011903504+69050+018550FM-15+0079ENDU V0202201N003112200019N0112651N1+00201-00201099381ADDGA1021+015009999GF102991999999999999999999MA1099291098411MW1001REMMET005NEW ;EQDQ01+999990APOSP Q02+999990APOSLPQ03+000000PRSWM2
0131010230999991999011904504+69050+018550FM-15+0079ENDU V0202101N005112200019N0112651N1+00201-00201099381ADDGA1021+015009999GF102991999999999999999999MA1099291098411MW1001REMMET005NEW ;EQDQ01+999990APOSP Q02+999990APOSLPQ03+000000PRSWM2
0195010230999991999011906004+69050+018550SY-MT+0079ENDU V0202201N003112200019N0600001N1+00111-00231099381ADDAA199000791AJ100239199999999GA1021+013509999GF104991031051012501071081IA1239KA1120N-00821MA1099291098411MD1210061+9999MW1001REMSYN023 333 21082 47023 91118;MET011NEW NOSIG ;EQDQ01+000000PRSWM2
0153010230999991999011906504+69050+018550FM-15+0079ENDU V0202101N004112200019N0112651N1+00201-00401099381ADDGA1021+009009999GA2021+013509999GF104991999999999999999999MA1099291098411MW1001REMMET011NEW NOSIG ;EQDQ01+999990APOSP Q02+999990APOSLPQ03+000000PRSWM2
0137010230999991999011907504+69050+018550FM-15+0079ENDU V0202301N004612200019N0112651N1+00301-00501099371ADDGA1021+007509999GF102991999999999999999999MA1099291098411MW1001REMMET011NEW NOSIG ;EQDQ01+999990APOSP Q02+999990APOSLPQ03+000000PRSWM2
0134010230999991999011909004+69050+018550SY-MT+0079ENDU V0203301N001512200019N0750001N1+00021-00421099401ADDGA1021+009009999GF199999011051008001041011MA1099291098431MD1310021+9999MW1001REMMET010NEW NOSIG;EQDQ01+000012SCOTCVQ02+000000PRSWM2
0136010230999991999011909504+69050+018550FM-15+0079ENDU V0209999V001012200019N0112651N1-00301-00601099391ADDGA1021+013509999GF102991999999999999999999MA1099291098411MW1001REMMET010NEW NOSIG;EQDQ01+999990APOSP Q02+999990APOSLPQ03+000000PRSWM2
0136010230999991999011910504+69050+018550FM-15+0079ENDU V0209999V001012200019N0112651N1-00301-00501099391ADDGA1021+015009999GF102991999999999999999999MA1099291098411MW1001REMMET010NEW NOSIG;EQDQ01+999990APOSP Q02+999990APOSLPQ03+000000PRSWM2
0151010230999991999011912004+69050+018550SY-MT+0079ENDU V0203001N001512200019N0750001N1-00431-00691099421ADDGA1021+015009999GF199999011051012501071011MA1099291098441MD1010011+9999MW1001REMSYN011 333 91121;MET010NEW NOSIG;EQDQ01+000012SCOTCVQ02+000000PRSWM2
0136010230999991999011912504+69050+018550FM-15+0079ENDU V0209999V001012200019N0112651N1-00701-00801099411ADDGA1021+018009999GF102991999999999999999999MA1099291098411MW1001REMMET010NEW NOSIG;EQDQ01+999990APOSP Q02+999990APOSLPQ03+000000PRSWM2
0131010230999991999011913504+69050+018550FM-15+0079ENDU V0209999V000512200019N0112651N1-00701-00801099411ADDGA1021+018009999GF102991999999999999999999MA1099291098411MW1001REMMET005NEW ;EQDQ01+999990APOSP Q02+999990APOSLPQ03+000000PRSWM2
0129010230999991999011915004+69050+018550SY-MT+0079ENDU V0201901N001012200019N0750001N1-00861-00901099331ADDGA1021+015009999GA2021+024009999GF104991011051012501071011MA1099191098351MD1710091+9999MW1001REMMET005NEW ;EQDQ01+000000PRSWM2
0131010230999991999011915504+69050+018550FM-15+0079ENDU V0209999V001012200019N0112651N1-00901-00901099311ADDGA1021+015009999GF102991999999999999999999MA1099191098311MW1001REMMET005NEW ;EQDQ01+999990APOSP Q02+999990APOSLPQ03+000000PRSWM2
0131010230999991999011916504+69050+018550FM-15+0079ENDU V0209999V000512200019N0112651N1-01101-01101099321ADDGA1021+015009999GF102991999999999999999999MA1099191098311MW1001REMMET005NEW ;EQDQ01+999990APOSP Q02+999990APOSLPQ03+000000PRSWM2
0192010230999991999011918004+69050+018550SY-MT+0079ENDU V0202101N001012200019N0750001N1-01101-01131099291ADDAA199000091GA1021+015009999GF199999011051012501071011KA1120M+00301MA1099191098311MD1810041+9999MW1001REMSYN017 333 10030 91107;MET005NEW ;EQDQ01+000012SCOTCVQ02+000000PRSWM2Q03  00002PRCP99
0131010230999991999011918504+69050+018550FM-15+0079ENDU V0209999V000512200019N0112651N1-01001-01001099321ADDGA1021+015009999GF102991999999999999999999MA1099191098311MW1001REMMET005NEW ;EQDQ01+999990APOSP Q02+999990APOSLPQ03+000000PRSWM2
0131010230999991999011919504+69050+018550FM-15+0079ENDU V0209999V000512200019N0112651N1-01201-01201099331ADDGA1021+015009999GF102991999999999999999999MA1099191098311MW1001REMMET005NEW ;EQDQ01+999990APOSP Q02+999990APOSLPQ03+000000PRSWM2
0103010230999991999011921004+69050+018550SY-MT+0079ENDU V0202101N001512200019N0750001N1-01131-01181099331ADDGF101991011001999999071001MA1099191098351MD1310041+9999MW1001REMMET011NEW CAVOK ;EQDQ01+000000PRSWM2
0095010230999991999011921504+69050+018550FM-15+0079ENDU V0209999C00001220001CN0099001N1-01201-01301099431ADDMA1099291098411MW1001REMMET011NEW CAVOK ;EQDQ01+999990APOSP Q02+999990APOSLPQ03+000000PRSWM2
0095010230999991999011922504+69050+018550FM-15+0079ENDU V0209999V00051220001CN0099001N1-01401-01401099441ADDMA1099291098411MW1001REMMET011NEW CAVOK ;EQDQ01+999990APOSP Q02+999990APOSLPQ03+000000PRSWM2
0120010230999991999012000004+69050+018550SY-MT+0079ENDU V0202501N000512200019N0750001N1-01381-01421099381ADDGF101991011001999999071081MA1099291098391MD1010041+9999MW1001REMSYN011 333 91105;MET011NEW CAVOK ;EQDQ01+000000PRSWM2
0147010230999991999012000504+69050+018550FM-15+0079ENDU V0209999V001012200019N0112651N1-01401-01401099441ADDGA1021+015009999GA2021+030009999GF104991999999999999999999MA1099291098411MW1001REMMET005NEW ;EQDQ01+999990APOSP Q02+999990APOSLPQ03+000000PRSWM2
